:020000040002F8
:10C0000000400020DDC002000DC102000FC102008F
:10C010000000000000000000000000000000000020
:10C0200000000000000000000000000011C102003C
:10C03000000000000000000013C1020015C1020052
:10C0400017C102001BC102001FC1020023C1020070
:10C0500027C102002BC102002FC1020033C1020020
:10C0600037C102003BC102003FC1020043C10200D0
:10C0700047C102004BC102004FC1020053C1020080
:10C0800057C102005BC102005FC1020063C1020030
:10C0900067C102006BC102006FC1020073C10200E0
:10C0A00077C102007BC102007FC1020083C1020090
:10C0B00087C102008BC102008FC1020093C1020040
:10C0C0000348854600F074FD00480047B94A030064
:10C0D0000040002000C0FF1F0040002072B62E4923
:10C0E00009682E4A1268521A013A05DD002004231D
:10C0F00008601944043AFBDA00BF29482949016065
:10C100000A6882F3088862B627488047FEE7FEE7A0
:10C11000FEE7FEE7FEE7254800472548004725489B
:10C12000004725480047254800472548004725483F
:10C13000004725480047254800472548004725482F
:10C14000004725480047254800472548004725481F
:10C15000004725480047254800472548004725480F
:10C1600000472548004725480047254800472548FF
:10C1700000472548004725480047254800472548EF
:10C1800000472548004725480047254800472548DF
:10C19000004725480047FEE7D4C00200D8C002008F
:10C1A00008ED00E000C00200C1C0020097C102001B
:10C1B00097C1020097C1020097C1020097C1020017
:10C1C0002D0F0300370F030097C1020097C1020033
:10C1D00097C102001D3903002739030031390300DC
:10C1E0003B39030097C1020097C1020097C10200CA
:10C1F000A3320300AD320300B73203006DDC02004E
:10C2000077DC020097C1020097C1020097C10200CB
:10C2100035280300E945030097C10200292A0300DD
:10C22000E9280300D52003005121030003460B43F6
:10C230009B0703D009E008C9121F08C0042AFAD2DC
:10C2400003E00B780370401C491C521EF9D2704762
:10C25000F8B502464A40D40F42004B0052085B0832
:10C260009A4202D20246084611464A0023D0C30D24
:10C270004A00DDB2120EAD1A202D35DA4902012630
:10C28000490AF6058A19002C00D0524220214F1B82
:10C290001146B9402A411018C20D9A4221D0002CF3
:10C2A00017D0012D08DCDA05801AD20F8019D207C9
:10C2B000DBB200F0B1FBF8BDDA05801A01234000C3
:10C2C0001B06C01880185A428018CA0F1043490034
:10C2D00007E04908C2071143DA05801A80194008AF
:10C2E000801800F091FBF8BD61000122511A001B7B
:10C2F000F7E70122D2075140AAE70122D2075040B6
:10C30000A6E7024670B54A40D30FDB0740002DD0A8
:10C310004A002AD0010E140E000212020919400A26
:10C32000520A8418E50104465443000A120A2E04F6
:10C330005043A4194219200CC543AA18120C012518
:10C34000AD03521C521912047F39240400D0521C30
:10C35000104301D44000491EC2B20C06C009201887
:10C36000401C4008802A02D003E0002070BD400835
:10C370004000002900DA0020184370BD70B5024665
:10C380004A40D50F40004A00ED07400852080028F7
:10C3900014D0002A12D0C40DD30D41020120C005D3
:10C3A0005202490A520AE41A091812187D349142BD
:10C3B00001D3641C00E04900002C01DA002070BDAC
:10C3C0000023914201D3891A034340084900002801
:10C3D000F7D100290AD0914202D10121C90705E015
:10C3E000914201D2012101E00121C943E005C018B9
:10C3F000401900F009FB70BDF0B5074608465840EB
:10C4000087B0C00F049048000E4659004008490804
:10C41000BC1A884105D2384631461E4617460B469F
:10C4200002465800400810434CD0300D03904005A0
:10C430005900400D490D0590401A0290402872DACB
:10C4400018030121000B090508430190049800928C
:10C45000002805D0019952420020884100920190A5
:10C46000029840210A1A0199009800F099FA0546AD
:10C470000C466B4607CB00F0B4FAC0197141039A21
:10C480000E0D0023D71756401A467A40164344D063
:10C49000049A002A2DD0029A012A039A15DC12056B
:10C4A000C01A914101263605001C7141D20F059E2C
:10C4B000D2070093019202962A46234600F0F2FA30
:10C4C00007B0F0BD38463146FAE71605224A0F4656
:10C4D000B218C01AB74101210905001C4F410018CC
:10C4E0007F41114618187941E20F10436D196441DC
:10C4F00013E0E2076D0815436408C2071443039A6A
:10C5000001261205C01A91413605001C7141CE0763
:10C51000400830434908C01851412A46234600F0DC
:10C52000B4FACDE7FFE7049801224000C117121AC0
:10C5300000238B4104983146C417381AA141EEE715
:10C5400030B40124E407634030BC55E730B4012423
:10C55000E407614030BC4FE70000E0FFF0B51FB4D6
:10C5600088B00B990998002448400999C00F4900E8
:10C5700049080991C0070B990090490049080B919F
:10C5800009990898A64608431CD00B990A980843B5
:10C5900018D0099801244000420D4800410D099827
:10C5A00024050003000B204309900B980003000BA7
:10C5B00020430B9050181C4940180022019014464B
:10C5C000104605E0002001460DB0F0BD032801DA59
:10C5D000034600E003239C46C11A0AAE0AE05F004E
:10C5E00008ADED5B4F00F75B7D430027AA187C4147
:10C5F000491C5B1E6145F2DD410004AB5A52210427
:10C60000120C0A43240C401C0828DFDB019802901E
:10C610000099704601910090059B049A079906982D
:10C6200000F040FAD0E700000DFCFFFFF0B50C462B
:10C630005C4085B0E40FE40703944C0000266408D6
:10C6400059009446490802460296224321D0624688
:10C650000A431ED06200570D4A000E032303550DF6
:10C66000012402462C492405781B1B0B360B40186D
:10C6700023432643614600901C46501AB44103D31D
:10C680000098401C009002E0921800985B4100283E
:10C6900003DA0020014605B0F0BD002001210905A4
:10C6A0000746864611E064461D46141BB54106D375
:10C6B0006546521BB341744607430C43A646CD075B
:10C6C00040084908284392185B4105460D43EAD1CA
:10C6D0001046184313D06046194650407140084335
:10C6E00006D06046101AB34106D20122002306E0AC
:10C6F00000220123DB0702E00122D24353100098FD
:10C7000074460105381C6141029C039D0019694172
:10C7100000F0BBF9BFE70000FD0300000122D207D3
:10C72000002800DB101A002900DB511A814201D8D1
:10C7300001207047002070470122D207002800DB4B
:10C74000101A002900DB511A814201D201207047E2
:10C75000002070470122D207002800DB101A0029B0
:10C7600000DB511A814201D301207047002070473D
:10C7700010B5002904DB0C460121C9074042A14144
:10C78000002B04DB1C460123DB075242A341801A25
:10C79000994101D3012010BD002010BD10B5002922
:10C7A00004DB0C460121C9074042A141002B04DBF8
:10C7B0001C460123DB075242A341101A8B4101D2D0
:10C7C000012010BD002010BDC217C10F504010B590
:10C7D0004018CA079623002100F01EF910BD000082
:10C7E0000EB5C217C10F5040CA0740180021054BB3
:10C7F0000293019200910A460B4600F053F903B0F0
:10C8000000BD00003304000070B5CD0F4A000903DD
:10C810000123090B1B0519430B4BED070024520D97
:10C820009A4201DA002070BD074B34339A4203DC90
:10C830009A1A00F0C5F802E00449511888402C43C8
:10C84000F1D0404270BD0000FF030000CDFBFFFFB0
:10C85000C20FD207400040080BD0C10D0723DB01F7
:10C86000C91840020905400A1143C2084007114394
:10C870007047002001467047CB0FDB07490010B519
:10C88000490802460A4307D00A0D07240903E401B8
:10C89000090B121B002A01DC002010BDC900440F47
:10C8A0000C43C100E018D205801800F0ADF810BDAF
:10C8B00070B50446002903D000202022012310E097
:10C8C000002801D00020C043C046C0460DE02546E8
:10C8D000D5408D4205D30D469540641B1D469540BD
:10C8E00040191546521E002DF1DC214670BD000096
:10C8F00070B5002504462E46002911D0002C01DA1F
:10C9000001254442002901DA012649422046FFF769
:10C91000CFFFB54200D04042002D00D0494270BD4B
:10C92000002C02DA0121C90702E0002C00DD0349D6
:10C930000846C046C046214670BD0000FFFFFF7F8D
:10C94000F0B51FB40646002082B005464024019190
:10C9500000901BE0019922460F46304600F030F867
:10C96000049A059B801A994110D310461946224615
:10C9700000F016F8361A8F41019722460120002157
:10C98000009F00F00DF838184D4100902046641EBD
:10C990000028DFDC019B00982946324607B0F0BD35
:10C9A00010B5202A04DB0146203A9140002010BD3A
:10C9B000914020239C1A0346E3401943904010BD48
:10C9C00010B5202A04DB0846203AD040002110BDD3
:10C9D0000B46D340D0402024A21A91400843194668
:10C9E00010BD10B5202A06DBCB170846203A1041AF
:10C9F000C1170B4306E00B461341D0402024A21A76
:10CA000091400843194610BD002904DA401C490032
:10CA100001D140084000704770B40024050C05D1D6
:10CA20001024000402D1002921D01124050E01D1C7
:10CA300000020834050F01D10001241D850F01D12A
:10CA40008000A41C002801DB4000641C002908D0E1
:10CA500020252E1B0D46F540A14000D00121294381
:10CA6000084301061B1B000ADB1D02D5002070BC19
:10CA70007047DB05181880180029F8DA401C4900B7
:10CA8000F5D170BC40084000704710B5002B08DAA3
:10CA90000024401C614192185B411A4301D14008B7
:10CAA000400010BDF0B51FB482B005460C0003D0A5
:10CAB000084608F061F802E008F05EF8203002460F
:10CAC000009021462846FFF76BFF049B059A044619
:10CAD0000F4618431143084314D0184610431BD087
:10CAE000009840210A1A18460599FFF769FF054684
:10CAF0000E46009A05990498FFF752FF084305D0A7
:10CB0000012004E02046394607B0F0BD0020C117DF
:10CB100005430E432C43374300990E986305401A92
:10CB20007905E40A00220C43FD0A0A3002D50020F0
:10CB30000146E9E70105101969410C9C0D9D00199A
:10CB40006941FFF7A2FFDFE74A0009030123090B50
:10CB50001B0519430A4B10B5520D9A4202DA002008
:10CB6000014610BD064B34339A4203DC9A1AFFF794
:10CB700027FF10BD034BD218FFF712FF10BD0000B6
:10CB8000FF030000CDFBFFFF10B5002904DB0124EB
:10CB9000E40740428C412146002B04DB1C46012364
:10CBA000DB075242A341994200D1904210BD0000E0
:10CBB0001CB5094800900948019005460126009CD3
:10CBC00005E0E36807CC33430C3C98471034AC4293
:10CBD000F7D3FFF779FA0000645C0300945C03006C
:10CBE00070B58C180578401C6B075B0F01D103787A
:10CBF000401C2A1106D10278401C03E006780E7012
:10CC0000401C491C5B1EF9D12B0705D40023521E82
:10CC10000DD40B70491CFAE70378401CCB1A921C08
:10CC200003E01D780D70491C5B1C521EF9D5A14212
:10CC3000D8D3002070BD80B590B00F900E910D92AA
:10CC40000E9B0D990F9800910CA90BAA00F036F8D5
:10CC50000E980C99C90040180A900E980B99C900BB
:10CC6000401809900A98019000680290FFF7ACFD07
:10CC7000019907900F9849680491FFF73AFB0299D0
:10CC80000390099805900068401AFFF79DFD014642
:10CC90000398FFF736FB0499024605980692406810
:10CCA000FFF727FB01460698FFF768FB0146079848
:10CCB000FFF7CEFA0890089810B080BD10B588B084
:10CCC0000A9C079006910592049303A9002008701E
:10CCD0000A98002804D1FFE703A92220087003E086
:10CCE00003A92A200870FFE7079804994968FFF70D
:10CCF00015FD002804D1FFE704984068079017E06D
:10CD00000798049A03A90978C9008918091F0968B6
:10CD1000FFF720FD002809D1FFE7049903A8007858
:10CD2000C0004018001F0068079000E0FFE7FFE721
:10CD30000020029003A80078401E0190FFE70298AF
:10CD4000401C0199884219DAFFE7029801994018BE
:10CD5000C10F40184010009007980499009AD20023
:10CD600089184968FFF7DAFC002803D1FFE700982B
:10CD7000019002E000980290FFE7E0E70298069930
:10CD8000086001980599086008B010BD1A4801882C
:10CD9000491C01800188194848431949401803215A
:10CDA000C8411849884201D8FFE700E0FFE7124870
:10CDB000018815484843154940181549884201D84B
:10CDC000FFE700E0FFE70C4801881248484312499A
:10CDD00040181249884201D8FFE700E0FFE7064803
:10CDE00000887D21C900884204DBFFE70249012059
:10CDF000088000E0FFE7704700000020295C8FC238
:10CE000050B81E0514AE4701D712B9BF52DA8D00D3
:10CE1000A4B41B01EFCD7AA245EA78008AD4F100D0
:10CE20005C4901204874704780B58EB00DA9C320BD
:10CE30008870564808800CA900200880079006904A
:10CE40005348007803280FD1FFE70020049004F036
:10CE500093F80498492104F0FBFB049804F09AF835
:10CE60004B49022008708FE049480078022808D119
:10CE7000FFE700200DA903F06BFF45490120087072
:10CE800081E04348007801280DD1FFE705A9002083
:10CE90000390087003F024FF0398DD4A0121117606
:10CEA0003B4908706EE03A480078002869D1FFE7F6
:10CEB000D748007EC007002862D1FFE7344903202D
:10CEC0000870D449FF200860D149019148790001D8
:10CED0008979090941180CA801800088FFF780FCB6
:10CEE000CD4ACE4BFFF73AFB0022CD4BFFF79EFB1E
:10CEF0000B910A900A980B99274A284BFFF796FB4B
:10CF00000991089008980999254A264BFFF774FA69
:10CF10000246019802920A46029907920691202140
:10CF2000405CC007002829D0FFE71F480022C260EC
:10CF30008260069807991D4BFFF730FC002805D149
:10CF4000FFE71A4807900020069002E0079806982D
:10CF5000FFE70698079900220092154BFFF7FEFAAB
:10CF6000FFF752FC1049887308310520000202F0D7
:10CF700053FB0098A6492022885400E0FFE7FFE712
:10CF8000FFE7FFE7FFE7FFE70EB080BD01C300004A
:10CF900002000020940100201E1E1E1E1E1EBE3F09
:10CFA000CDCCCCCCCCCCDC3F300300200080394051
:10CFB00000002440B0B5A4B023A9C32088709048D5
:10CFC000088022A900200B900880219020908D4994
:10CFD0001BA81122FFF72AF90B981AA908708A4A90
:10CFE00015A918CA18C138CA38C1149013901290E4
:10CFF000119010908548007803280FD1FFE700209A
:10D000000A9003F0B9FF0A98492104F021FB0A981D
:10D0100003F0C0FF7D4902200870EFE07B480078F4
:10D02000022808D1FFE7002023A903F091FE7749E9
:10D0300001200870E1E07548007801280DD1FFE774
:10D040000FA900200990087003F04AFE0998FD4AD4
:10D05000012151766D490870CEE06C4800780028B7
:10D0600000D0C8E0F748407EC007002800D0C1E0EB
:10D07000664903200870F449FF200860F1494879A7
:10D08000000189790909411822A801800088FFF769
:10D09000A7FBEE4AEE4BFFF761FA00220792ED4B39
:10D0A000FFF7C4FA0246079808920A4608992192A7
:10D0B00020910EA90870FFE70EA80078042845DC2F
:10D0C000FFE720980590219806900EA8007881002F
:10D0D00015A84058FFF7BCFB024605980B46069979
:10D0E000FFF746FB002814D1FFE720980190219814
:10D0F00002900EA80078810015A84058FFF7A8FB01
:10D10000024601980B460299FFF71AFA0390049120
:10D110000DE00EA80078810015A84058FFF798FB95
:10D12000209A219BFFF70CFA03900491FFE70398E4
:10D130000499FFF7A1FB0EA909788A0010A988506D
:10D14000FFE70E98401C0EA90870B5E710980D90E7
:10D150000CA900200870FFE70CA8007804281BDC4D
:10D16000FFE70CA80078810010A840580D99FFF740
:10D17000F1FA00280AD1FFE70CA80078810010A876
:10D1800040580D900C981AA90870FFE7FFE70C981B
:10D19000401C0CA90870DFE71AA80078009004284A
:10D1A00022D80098810001A040588746C1D10200D2
:10D1B000C9D10200D1D10200D9D10200E1D10200CF
:10D1C0001BA93020887210E01BA9312088720CE066
:10D1D0001BA93220887208E01BA93320887204E062
:10D1E0001BA93420887200E0FFE71BA8112106F07C
:10D1F000A3FFFFE7FFE7FFE7FFE7FFE724B0B0BDCE
:10D2000001E300009C540300885403000300002045
:10D210009401002058000020FCA9F1D24D6210407A
:10D2200000FC9F4080B596B015A9C3208870824845
:10D23000088014A900200880119010900FA9087090
:10D240000E907E490AA80F22FEF7F0FF7C48007876
:10D2500003280FD1FFE70020089003F08DFE089807
:10D26000492104F0F5F9089803F094FE744902206E
:10D270000870DEE072480078022808D1FFE700203D
:10D2800015A903F065FD6E4901200870D0E06C48D7
:10D29000007801280DD1FFE709A900200790087048
:10D2A00003F01EFD0798F34A012191756449087047
:10D2B000BDE063480078002800D0B7E0ED48807DED
:10D2C000C007002800D0B0E05D4903200870EA499B
:10D2D000FF200860E7494879000189790909411868
:10D2E00014A801800088FFF77BFAE44AE44BFFF7BB
:10D2F00035F90022E34BFFF799F913911290129838
:10D300001399E14AE14BFFF749FA002801D1FFE701
:10D3100021E0129803901399049100224E4BFFF7DD
:10D320001DF9039A049B05900691D748D749FFF74A
:10D3300007F9024605980B460699FFF777F9119110
:10D34000109010981199FFF797FAD1490122FFF731
:10D3500072FC0E90FFE70E980021FFF7EDF9002810
:10D3600013D1FFE70E98FFF773FA0022C94BFFF7BE
:10D3700043F8FFF749FA01460FA801700AAA2021D5
:10D380001172007800F08AF910E00E98FFF760FA49
:10D3900002460B460020BF49FFF7D2F8FFF734FAE8
:10D3A0000FA908700AA92D200872FFE7B148807FF5
:10D3B000C00700281FD0FFE7B7480021C160816087
:10D3C0000E98FFF7B9F9002805D1FFE70F9837301D
:10D3D000B149087305E00F993720401AAE49087328
:10D3E000FFE7AD4908310520000202F015F9F149C7
:10D3F0000020887700E0FFE70FA8019000780A215D
:10D400000091FFF755FA00990246019830320AABB5
:10D4100002935A720078FFF74BFA029830221143B8
:10D4200081720F2106F088FEFFE7FFE7FFE7FFE7C5
:10D43000FFE716B080BDC04601D30000AD54030025
:10D44000040000209401002058000020FCA9F1D223
:10D450004D62104000FC9F400000244080B594B015
:10D4600013A9C32088707E48088012A90020088074
:10D470000F900E900DA908700C90DD20C0430B900A
:10D4800078480A9078480990784808907848007859
:10D4900003280FD1FFE70020069003F06DFD0698EA
:10D4A000492104F0D5F8069803F074FD7049022074
:10D4B0000870D2E06E480078022808D1FFE700200B
:10D4C00013A903F045FC6A4901200870C4E06848CC
:10D4D000007801280DD1FFE707A90020059008700A
:10D4E00003F0FEFB0598E94A0121D17560490870F7
:10D4F000B1E05F480078002800D0ABE0E348C07D91
:10D50000C007002800D0A4E05949032008705A49F8
:10D51000FF200860DD49487900018979090941182F
:10D5200012A801800088FFF75BF9544A544BFFF7BB
:10D5300015F80022534BFFF779F8119110901098CD
:10D540001199514A514BFFF729F9002801D1FFE702
:10D5500019E0109A0392119B04934B484B49FEF734
:10D56000EFFF024603980B460499FFF75FF80F910F
:10D570000E900E980F99FFF77FF945490022FFF7AB
:10D580005AFB0C90FFE70C980021FFF7D5F8002814
:10D590000FD1FFE70C98FFF75BF900223D4BFEF738
:10D5A0002BFFFFF731F90DA9087008A92020487258
:10D5B00010E00C98FFF74CF902460B460020354965
:10D5C000FEF7BEFFFFF720F90DA9087008A92D206E
:10D5D0004872FFE7AD48C07FC00700281FD0FFE7B3
:10D5E0002D480021C16081600C98FFF7A5F8002844
:10D5F00005D1FFE70D9828302749487305E00D99BC
:10D600002820401A24494873FFE7234908310520A0
:10D61000000202F001F89D490020C87700E0FFE712
:10D620000DA8019000780A210091FFF741F90099B7
:10D6300002460198303208AB02939A720078FFF7E5
:10D6400037F9029830221143C172102106F074FD9F
:10D65000FFE7FFE7FFE7FFE7FFE714B080BDC04645
:10D6600001F30000222033357478743D7431352E77
:10D67000050000209401002058000020FCA9F1D2F0
:10D680004D62104000FC9F406666666666660A4012
:10D69000405A03000000E03F3003002080B588B00E
:10D6A000014607A80170002106910078402801DC9E
:10D6B000FFE775E007A80078562831DBFFE73E4812
:10D6C000069073480088FFF78BF804900591069840
:10D6D000FFF7BEF8354A364BFEF740FF0246049886
:10D6E0000B460599FFF744F800280CD1FFE7069890
:10D6F000FFF7AEF82D4A2E4BFEF730FFFFF784F808
:10D7000063490880FFE7E4482D21405CC0070028FA
:10D7100005D1FFE7E0492D2201208854FFE73EE0D4
:10D7200007A80078FFF75CF8002201921D4BFEF776
:10D7300015FF019A1C4BFEF75FFEFFF79DF8069060
:10D74000E7480088FFF74CF8029003910698FFF72E
:10D750007FF8E14AE14BFEF701FF024602980B46D3
:10D760000399FFF705F800280CD1FFE70698FFF7AB
:10D770006FF8D94AD94BFEF7F1FEFFF745F8D849C3
:10D780000880FFE7C4482D21405CC007002805D170
:10D79000FFE7C1492D2201208854FFE7FFE7FFE79B
:10D7A00008B080BD000012C00088784033333333A6
:10D7B00033935840940100200000204180B582B08E
:10D7C0003F48019003F02EFA3E4803F02BFA0198EF
:10D7D00003F00AFA002827D0FFE7AF482D21405C6C
:10D7E000C007002805D1FFE7AB492D22012088544E
:10D7F000FFE7BB480088002804D1FFE7B849274865
:10D80000088010E0B64800882249884204DCFFE71F
:10D81000B3490020088005E0B14908881E4A8018F5
:10D820000880FFE7FFE700E0FFE7264803F0DCF9A8
:10D83000002827D0FFE798482D21405CC00700282A
:10D8400005D1FFE794492D2201208854FFE7A44821
:10D8500000881249884204DBFFE7A14900200880C4
:10D860000FE09F4801880E4A8918018000880B4903
:10D87000884204DBFFE7F5490848088000E0FFE73D
:10D88000FFE700E0FFE702B080BDC0469401002042
:10D8900054010020D603000029FCFFFF662600008B
:10D8A000D703000080B582B005482821019103F01C
:10D8B00000FA0199034803F0FCF902B080BDC046AC
:10D8C000660100206C01002080B594B012A90020F0
:10D8D0000880119010A908700CA9FF200873D74880
:10D8E0000E90D7480D90D7480C906A4800780528CC
:10D8F0000FD1FFE700200B9003F03EFB0B9839217E
:10D9000003F0A6FE0B9803F045FB62490420087063
:10D91000BEE06048007804280DD1FFE713A9052078
:10D920000880002003F0EFF95B4901204875594950
:10D9300003200870ABE057480078032810D1FFE7B8
:10D940005548407DC007002808D1FFE7524840797C
:10D95000534908704F490220087000E0FFE795E046
:10D960004C48007802280CD1FFE713A90620088054
:10D97000002003F0C8F9484901204875454908705E
:10D9800083E04448007801287DD1FFE74248407D8C
:10D99000C007002875D1FFE73F4840793F4908702C
:10D9A0003C4A05201070AC4AFF2010603C480078CB
:10D9B00000020978411812A801800088FEF710FFC4
:10D9C00000220A92A54BFEF731FEFEF755FF11909B
:10D9D0001198FEF73DFFA24AA24BFEF70DFD0A9AF1
:10D9E000A14BFEF7BBFDFEF70FFF014610A801702B
:10D9F0000078642826D1FFE710A8079000786421FA
:10DA00000591FEF755FF05990246079830230893C4
:10DA10001A430CAB0993DA710078FEF749FF084608
:10DA20000A210691FEF744FF0699099B02460798D2
:10DA300030321A720078FEF73BFF089A09981143BA
:10DA4000417219E00CA9049130200390C87110A80C
:10DA5000029000780A210191FEF72AFF0199049BA8
:10DA60000246029830321A720078FEF721FF039ABC
:10DA7000049811434172FFE70CA80D2106F05CFBEE
:10DA800000E0FFE700E0FFE7FFE7FFE7FFE7FFE772
:10DA900014B080BD06000020940100206501002024
:10DAA0006401002080B582B0014601A801700078B1
:10DAB000652801DBFFE70CE001A80078FEF790FE87
:10DAC000054A064BFEF74AFDFEF79EFE5F490880B9
:10DAD000FFE702B080BDC046333333333393584041
:10DAE0005401002080B596B013A9002008700FA93A
:10DAF000FF200873514811905148109051480F90E1
:10DB00005148007802280FD1FFE700200D9003F064
:10DB100033FA0D98392103F09BFD0D9803F03AFA82
:10DB200049490120087086E047480078012800D064
:10DB300080E046480B900178454A0A92117040787F
:10DB4000444A107015A90520087000200C9003F0BD
:10DB50003FFE0A9A0C9814A906230B7003F038FEB6
:10DB60000B983D4AFF211160374A0221117000884D
:10DB7000FEF736FE0C9A394BFEF758FDFEF77CFE99
:10DB80000E900E98FEF764FE354A364BFEF734FCD5
:10DB90000C9A354BFEF7E2FCFEF736FE014613A861
:10DBA00001700078642826D1FFE713A80790007859
:10DBB00064210591FEF77CFE059902460798302303
:10DBC00008931A430FAB0993DA710078FEF770FEE1
:10DBD00008460A210691FEF76BFE0699099B02464C
:10DBE000079830321A720078FEF762FE089A099898
:10DBF0001143417219E00FA9049130200390C871BC
:10DC000013A8029000780A210191FEF751FE0199B4
:10DC1000049B0246029830321A720078FEF748FEE2
:10DC2000039A049811434172FFE70FA80D2106F0F3
:10DC300083FAFFE7FFE716B080BDC0460000FFFF94
:10DC4000616C3D006E322E760700002054010020EA
:10DC50007F0100207E010020580000200033C340D7
:10DC60007B14AE47E17A743F0000594080B5002034
:10DC700000F0BEFF80BD80B5012000F0B9FF80BD7F
:10DC800080B588B01C2002900421039102F0F4FAC0
:10DC900002980121069102F0F5FC029805F060F867
:10DCA000029804F00FFF1A490020079000F000FED0
:10DCB000039A07980B2104F03FFB039A07980A2167
:10DCC00004F03AFB0798134A0721049100F07AFF09
:10DCD0000499079B009318461A4601F075F90699B6
:10DCE0001420059006F08AFE059806F0F5FD0799C8
:10DCF000094A084600F0C8F90799084601F0A6FE4F
:10DD000006990798C94301F059FE08B080BDC04686
:10DD10000C0000201D270300B400002084B00390F5
:10DD200002910398810081484058019000200090A2
:10DD30000298019909687F221140884204D8FFE7C0
:10DD40000298402803D3FFE70120009017E00198D4
:10DD500000688000C00F002810D0FFE702980199EA
:10DD6000496B490D7822114008318908491D8842C4
:10DD700003D8FFE701200090FFE7FFE7FFE70098E7
:10DD800004B0704784B00390029103988100E54885
:10DD90004058019002991F200140012088400090C6
:10DDA00002981F2804D8FFE700980199086303E050
:10DDB00000980199C862FFE704B0704787B00690E9
:10DDC00006988100D6484058059006988100D548AD
:10DDD00040580490012210020290402001900498C3
:10DDE000803000900599486B12071043486300206B
:10DDF0000390FFE70398029988420AD2FFE700994F
:10DE00000398820000208850FFE70398401C03908D
:10DE1000F0E704981121C9014018009000200390F8
:10DE2000FFE70398019988420BD2FFE70099039816
:10DE300082000020C0438850FFE70398401C0390F5
:10DE4000EFE7049A0020C1431161049A5161049ADA
:10DE50009161049A916406998A00B1498958152202
:10DE6000D201891800910390FFE7039805280AD88A
:10DE7000FFE700990398820000208850FFE703988D
:10DE8000401C0390F1E706988100A54840585521B1
:10DE900049014018009000200390FFE703980328F1
:10DEA0000BD8FFE70099039882000020C0438850F8
:10DEB000FFE70398401C0390F0E70698810098481C
:10DEC0004058AB2109014018009000200390FFE763
:10DED00003980B280AD8FFE70099039882000020D6
:10DEE0008850FFE70398401C0390F1E706988100F3
:10DEF0008B4840580E494018009000200390FFE7DF
:10DF0000039835280AD8FFE700990398820000207B
:10DF10008850FFE70398401C0390F1E70599486B90
:10DF2000012212079043486307B070472C59030041
:10DF3000280F000085B004900391029204980828ED
:10DF400005D8FFE7049801900498009040E00498F9
:10DF50000C2805D8FFE7092001900C20009036E03E
:10DF60000498102805D8FFE70A200190102000909F
:10DF70002CE00498142805D8FFE70B20019014200A
:10DF8000009022E00498182805D8FFE70C200190A3
:10DF90001820009018E00498202805D8FFE70D20ED
:10DFA0000190202000900EE00498302805D8FFE76B
:10DFB0000E2001903020009004E00F2001904020BE
:10DFC0000090FFE7FFE7FFE7FFE7FFE7FFE7FFE777
:10DFD0000398002804D0FFE7019803990860FFE741
:10DFE0000298002804D0FFE7009802990860FFE734
:10DFF00005B0704783B0014602A8017001AA002154
:10E0000011700078082804D8FFE7029801A9087069
:10E0100036E002A800780938009006282ED800982B
:10E02000810001A04058874645E002004DE0020013
:10E0300055E002005DE0020065E002006DE00200D4
:10E0400075E0020001A90C20087018E001A9102059
:10E05000087014E001A91420087010E001A918202C
:10E0600008700CE001A92020087008E001A9302008
:10E07000087004E001A94020087000E0FFE7FFE716
:10E0800001A8007803B0704780B590B00F900E9152
:10E090000D920F988100224840580C900F988100F3
:10E0A000204840580B9000200A900C990968C9013B
:10E0B000C90F09910590049003900B98E0300290ED
:10E0C0000C98406B400D7821084008300690099864
:10E0D00000280AD1FFE70F9800F080FA002803D04B
:10E0E000FFE701200A90FFE7FFE70A98002800D029
:10E0F000DFE10C99086B0122104308630E98019030
:10E10000032800D9C5E10198810001A04058874645
:10E1100029E10200C9E10200F5E202007DE402000B
:10E120002C590300345903000E9A0C990868920781
:10E13000920D03231B02984380180860002008906A
:10E14000FFE70898069988423DD2FFE70020039038
:10E150000D98089A0C2151434058012804D1FFE73B
:10E160000120C0070390FFE70D98089A0C21514346
:10E1700040184068012813D1FFE70398012189075F
:10E180000843039003980D99089A0C235343C91828
:10E190008968C900890808430299920088500DE0F7
:10E1A00003980D99089A0C235343C91889684905A7
:10E1B00089080843029992008850FFE7FFE7089812
:10E1C000401C0890BDE765E10E9A0C99086892071B
:10E1D000920D03231B0298438018086000200790CB
:10E1E0000890FFE708980699884200D381E0002054
:10E1F000059004900D98079A0C215143405801282E
:10E2000004D1FFE70120C0070590FFE70D99079AA9
:10E210000C2050434018C068012804D1FFE70120BA
:10E22000C0030490FFE70D98079A0C215143401852
:10E230004068012815D1FFE70598012189070843A7
:10E24000059005980D99079B0C225A4389188968F7
:10E25000994A1140490008430299089A920088504F
:10E260000EE005980D99079B0C225A43891889687E
:10E270004905890808430299089A92008850FFE7E7
:10E280000D99079A0C20504340180069012817D1B6
:10E29000FFE704980121890308430490049B0D992A
:10E2A000079A0C2050434018406983490840C00B2E
:10E2B000034302990898820088581843885010E058
:10E2C00004980D9A079B0C215943891849694905FF
:10E2D000890C43180299089882008858184388507E
:10E2E000FFE70798801C0790FFE70898401C0890FC
:10E2F00078E7CFE00E9A0C9908689207920D0323F5
:10E300001B02984380180860002007900890FFE7E0
:10E3100008980699884200D3AFE00D98079A0C211F
:10E3200051434018406801280FD1FFE70D98079A24
:10E330000C21514340188068400D0306029908984B
:10E3400082008858184388500EE00D98079A0C21D7
:10E35000514340188068C00803060299089882005B
:10E36000885818438850FFE70D99079A0C205043AE
:10E3700040180069012811D1FFE70D99079A0C2078
:10E38000504340184069FF2149050840430902995C
:10E390000898820088581843885010E00D99079A11
:10E3A0000C20504340184069FF21C9000840430336
:10E3B000029908988200885818438850FFE70D9901
:10E3C000079A0C2050434018C069012811D1FFE77B
:10E3D0000D99079A0C2050434018006AFF21490507
:10E3E0000840430B029908988200885818438850C7
:10E3F00010E00D99079A0C2050434018006AFF2145
:10E40000C9000840430102990898820088581843BF
:10E410008850FFE70D99079A0C2050434018806AF6
:10E42000012811D1FFE70D99079A0C20504340189D
:10E43000C06AFF2149050840430D029908988200EF
:10E4400088581843885010E00D99079A0C205043C3
:10E450004018C06AFF21C9000840C3080299089803
:10E460008200885818438850FFE70798001D0790DE
:10E47000FFE70898401C08904AE70BE00E9A0C99B9
:10E4800008689207920D03231B02984380180860C6
:10E4900000E0FFE7099800280AD1FFE70F9800F095
:10E4A000F7F8002803D0FFE701200A90FFE7FFE715
:10E4B000FFE70A9810B080BD0080FF1F84B0039072
:10E4C00003988100DF48405802900020019000909E
:10E4D00002980068C00F002823D1FFE7029908685E
:10E4E0000122D20710430860FFE701987E49884265
:10E4F0000ED8FFE70198401C019002980068C00206
:10E50000C00F002803D0FFE70020009000E0ECE7F8
:10E5100001983149884203D3FFE701200090FFE7CB
:10E52000FFE7009804B0704710B582B001900198E1
:10E530008100DE48405800900099486B0124620732
:10E5400010434863009957204301C858E407A0438B
:10E55000C8500099C8588024A043C8500099486BFF
:10E560009043486302B010BD84B0039003988100CB
:10E57000CE48405802900020019000900298006818
:10E58000C002C00F002823D0FFE7029908680122CB
:10E59000D20790430860FFE70198534988420ED89C
:10E5A000FFE70198401C019002980068C002C00F6C
:10E5B000002803D1FFE70020009000E0ECE701987D
:10E5C0000549884203D3FFE701200090FFE7FFE7FA
:10E5D000009804B07047C0461027000084B0039034
:10E5E00003988100B1484058029000200190012218
:10E5F0000092029908689307184308600299086816
:10E6000012071043086002980068C00F002807D066
:10E61000FFE7029908680122D20790430860FFE7EC
:10E62000FFE70198184988420CD8FFE70198401C81
:10E630000190029800680001C00F002801D0FFE798
:10E6400000E0EEE701981149884203D3FFE701207B
:10E65000009016E000200190FFE701980A498842E7
:10E660000ED8FFE70198401C019002980068C00195
:10E67000C00F002803D0FFE70020009000E0ECE787
:10E68000FFE7009804B070473F4B4C00404B4C00F4
:10E6900084B0039003988100844840580290002081
:10E6A00001900122009202990868130798430860BC
:10E6B00002990868920790430860FFE701980A49A9
:10E6C00088420ED8FFE70198401C0190029800682C
:10E6D000C001C00F002803D1FFE70020009000E038
:10E6E000ECE7009804B070470F27000080B588B0B1
:10E6F000079005A9019108200870012000904002B0
:10E7000004900798002100F09FF801990690069860
:10E7100009784018039004980399FEF7C9F8009906
:10E720000290079800F090F80199069006980978F1
:10E730004018039004980399FEF7BAF8014602982E
:10E740004018029002A8007808B080BD10B590B0C3
:10E750000F900EA801700D920C930F9881005348F2
:10E7600040580B9009A90820087001204002089029
:10E77000002003900D98002804D0FFE70D99002099
:10E780000860FFE70F980021029100F05DF8014654
:10E790000AA80170007809A909784018069008981D
:10E7A0000699FEF785F801460298059107900EA894
:10E7B0000078059988422FD3FFE705990E98401AF3
:10E7C0000EA9019108700F980121009100F03CF80A
:10E7D00001460AA80170007809A909784018069036
:10E7E00008980699FEF764F8009902460198059288
:10E7F0004902079100780599884203D3FFE7012079
:10E80000039008E00D98002804D0FFE70D9901203F
:10E810000860FFE7FFE7FFE7039800280ED1FFE756
:10E8200007980EA90A7806995143401804900B984E
:10E830000499401880300C990860FFE7039810B0E5
:10E8400010BDC0462C59030084B003900291039878
:10E850008100D64840580190019800680005C00F1B
:10E8600000281BD0FFE7029800280BD1FFE7019892
:10E870000321890240588003800FC11C0120884079
:10E8800000900AE00198032189024058C002800FDD
:10E89000C11C012088400090FFE702E008200090A2
:10E8A000FFE76846007804B07047C0462C59030063
:10E8B000B0B588B00790069107988100BB484058D2
:10E8C000059007988100BA484058049000200390B2
:10E8D00005980068C00F002815D1FFE70798FFF7DB
:10E8E0007DFE002803D0FFE7012003900AE007988F
:10E8F000FFF7E4FD002803D0FFE70120039000E0CC
:10E90000FFE7FFE7FFE70398002837D1FFE7079805
:10E91000FFF72AFE002803D0FFE7012003902CE038
:10E920000798FFF75BFE002803D0FFE70120039064
:10E9300022E0059908680122520610430860002071
:10E940000290FFE702989B4988420CD8FFE70298A3
:10E95000401C0290059800688001C00F002801D17A
:10E96000FFE700E0EEE702989349884203D3FFE710
:10E9700001200390FFE7FFE7FFE7FFE70398002888
:10E9800000D085E005990868012422030192104314
:10E9900008600798FFF712FA019B0499002088622B
:10E9A000049948620499C04308630499C8620499B1
:10E9B0008248086204990D200004814A8850069814
:10E9C000826A05990868D207120DE502A8438018EB
:10E9D0000860059908682204104308600698826A56
:10E9E0000599086DD207E507A843801808650599C1
:10E9F000032082028858E403A04388500698826A64
:10EA00000599486BD207D20C984380184863069842
:10EA1000806A01282FD1FFE70698C36A059903246D
:10EA2000A20288589B079B0B2504A843C018885056
:10EA30000698036B059988589B07DB0AE404A043FA
:10EA4000C018885007980699143100F013FE012869
:10EA500003D1FFE7012003900CE0079806993431B9
:10EA600000F098FE012803D1FFE70120039000E0A9
:10EA7000FFE7FFE70BE007980699143101F026F84D
:10EA8000012803D1FFE701200390FFE7FFE7FFE73D
:10EA9000039800281FD1FFE70698006800900798A8
:10EAA000FFF724FE01460098884205D8FFE7069844
:10EAB0000068412803D3FFE7012003900AE006988D
:10EAC0000068421E059908687F231A409843801801
:10EAD0000860FFE7FFE7039800284AD1FFE70698A0
:10EAE0000069022807D0FFE705990868012252044F
:10EAF00010430860FFE706984068012829D1FFE726
:10EB00000698806A012803D1FFE7012003901FE0E7
:10EB10000599086801235A0710430860069882681F
:10EB20000599486B120712090F242406A043801888
:10EB300048630698C26805990868D207120CDB037F
:10EB400098438018086004990020C0438864FFE758
:10EB50000EE0059908680122520790430860069864
:10EB6000C068012803D1FFE701200390FFE7FFE71A
:10EB7000FFE70398002816D1FFE7059908680122EE
:10EB800092041043086007980699096900F090FE06
:10EB9000002803D0FFE70120039003E00798FFF768
:10EBA000C3FCFFE7FFE7039808B0B0BD2C59030092
:10EBB000345903000F2700001027000007001B0036
:10EBC000FC0A000083B002900191009201980F2886
:10EBD00001D3FFE709E0009802998A01F9498918F1
:10EBE000019A920089184860FFE703B07047C04659
:10EBF00080B590B00F900F988100EB484058089076
:10EC00000F988100E94840580790089800687F21D4
:10EC10000840401C06900798016A0F988200E4485B
:10EC200081500F99890040580E900E980F998A00D4
:10EC3000E049895808400E900E9807990862079895
:10EC4000DD4A80580D900D99079857235B01C058F5
:10EC500008400D21090408400D900D98079988502F
:10EC60000798D64A80580C900C9907980B231B02E2
:10EC7000C05808400321090408400C900C980799DB
:10EC800088500798006B0B900798816A0B98084092
:10EC90000B900798C06A0A900798416A0A98084042
:10ECA0000A900B98002800D197E00698212803D3FA
:10ECB000FFE72020029002E006980290FFE702980A
:10ECC000059000200490FFE704980599884200D33E
:10ECD00082E00B980499C840C007002877D0FFE76E
:10ECE000089800688000C00F002853D0FFE7049800
:10ECF00007284FD8FFE70498052816D1FFE70F989B
:10ED00008101B0484018006A002807D0FFE70F983B
:10ED10008101AC484018006A804705E00799886A7D
:10ED2000202290438862FFE7FFE70498062816D167
:10ED3000FFE70F988101A3484018406A002807D0D8
:10ED4000FFE70F9881019F484018406A804705E01F
:10ED50000799886A402290438862FFE7FFE704989A
:10ED6000072816D1FFE70F98810196484018806A5E
:10ED7000002807D0FFE70F98810192484018806A69
:10ED8000804705E00799886A802290438862FFE700
:10ED9000FFE716E00F9881018A484058002807D005
:10EDA000FFE70F988101874841580498884707E09A
:10EDB0000498012282400799886A90438862FFE79D
:10EDC000FFE704990120884007990863FFE7FFE700
:10EDD0000498401C049077E7FFE7069821283AD36F
:10EDE000FFE70A98002835D0FFE7069820380590FD
:10EDF00000200390FFE703980599884229D2FFE796
:10EE00000A980399C840C007002818D0FFE70F9858
:10EE100081016C484058002808D0FFE70F98810115
:10EE20006848415803982030884707E0039801223A
:10EE300082400799886A90438862FFE7FFE7039959
:10EE4000012088400799C862FFE70398401C03909F
:10EE5000D1E7FFE7FFE700200990FFE709980928BD
:10EE60002FD8FFE70E9809998A005549895808421A
:10EE700022D0FFE70F988101524840180999890074
:10EE80004018406800280AD0FFE70F9881014D48DC
:10EE90004018099989004018406880470BE00F9896
:10EEA000099900230093012200F08EF8002801D078
:10EEB000FFE7FFE7FFE7FFE7FFE70998401C09903E
:10EEC000CCE70A200990FFE709980C282FD8FFE724
:10EED0000D9809998A003A498958084222D0FFE7DB
:10EEE0000F988101374840180999890040184068F7
:10EEF00000280AD0FFE70F9881013248401809998D
:10EF000089004018406880470BE00F98099900235A
:10EF10000093012200F058F8002801D0FFE7FFE736
:10EF2000FFE7FFE7FFE70998401C0990CCE70D20B9
:10EF30000990FFE709980E282FD8FFE70C98099948
:10EF40008A001F498958084222D0FFE70F988101A3
:10EF50001C484018099989004018406800280AD0C8
:10EF6000FFE70F9881011748401809998900401858
:10EF7000406880470BE00F98099900230093012215
:10EF800000F022F8002801D0FFE7FFE7FFE7FFE7E6
:10EF9000FFE70998401C0990CCE70F9882000449CC
:10EFA0000020885010B080BD2C5903003459030054
:10EFB000D8010020E0010020FC0A0000080B00003E
:10EFC000B0580300E801002070B58AB00E9C09908B
:10EFD00008910792069309988100264840580590A9
:10EFE0000998810024484058049000200390059817
:10EFF0000068C001C00F0290029800280AD1FFE704
:10F000000998FFF7EBFA002803D0FFE701200390EF
:10F01000FFE7FFE70398002800D0EBE10898019094
:10F02000102800D9D6E10198810001A040588746F8
:10F03000B3F00200B3F0020009F1020009F102008E
:10F0400077F1020077F10200CDF1020023F2020015
:10F0500023F2020023F2020051F2020051F20200F8
:10F0600051F20200A1F20200A1F202007DF00200C2
:10F07000D7F202002C5903003459030007980028E6
:10F080000BD1FFE7069A0499886A104388620E9AAA
:10F090000499486A104348620AE0069A0499886A0B
:10F0A000904388620E9A0499486A90434862FFE749
:10F0B00091E10798002813D1FFE708988100D14813
:10F0C0004258049948681043486008988100CE4827
:10F0D000435809988200C94988581843885012E05B
:10F0E00008988100C748425804994868904348608E
:10F0F00008988100C448435809988200BF4988583D
:10F1000098438850FFE766E10798002819D1FFE788
:10F11000059908680122520510430860089881008B
:10F12000B8484258049948681043486008988100DC
:10F13000B548435809988200B04988581843885008
:10F1400018E0059908680122520590430860089864
:10F150008100AC4842580499486890434860089838
:10F160008100A948435809988200A44988589843C7
:10F170008850FFE72FE10798002813D1FFE7089890
:10F180008100A04842580499486B1043486308988E
:10F1900081009D484358099882009849885818432F
:10F1A000885012E008988100964842580499486BAC
:10F1B0009043486308988100934843580998820017
:10F1C0008E49885898438850FFE704E10798002843
:10F1D00013D1FFE7089881008A48425804990868CB
:10F1E00010430860089881008748435809988200B6
:10F1F000824988581843885012E008988100814855
:10F2000042580499086890430860089881007E4835
:10F210004358099882007949885898438850FFE7F5
:10F22000D9E00798002809D1FFE7089881007548C0
:10F2300042580499886A1043886208E0089881005F
:10F24000704842580499886A90438862FFE7C2E098
:10F250000599486B01235A071043486305995720C5
:10F2600042018858DB0798438850079800280BD143
:10F27000FFE70898810063484358049957204201EA
:10F280008858184388500AE0089881005D48435820
:10F29000049957204201885898438850FFE79AE024
:10F2A000079800280BD1FFE708988100554843587C
:10F2B00004990B2002028858184388500AE00898E5
:10F2C00081005048435804990B2002028858984303
:10F2D0008850FFE77FE0079800283ED1FFE70499B8
:10F2E000886A0020C043886204994A6A4862049987
:10F2F000486833229202104348600499486B032304
:10F300009A07104348630599486B0122540720432C
:10F3100048630599572044010859D507A843085167
:10F32000049908590D252D042843085105990868AA
:10F330009406204308600599086852051043086048
:10F3400004990B20020288581B041843885009981E
:10F3500082002A492A4888503BE00499886A0020A4
:10F36000886204994A6A4862049A516833239B026E
:10F3700099435160049A516B0324A3079943516345
:10F38000059A516B01235D0729435163059A572163
:10F390004D015159DE07B1435151049A51590D267F
:10F3A0003604B1435151059A11689D06A943116075
:10F3B000059A11685B0599431160049A0B210B02B1
:10F3C000D1582404A143D15009998A000B4988508F
:10F3D000FFE700E0FFE7029800280AD1FFE709985D
:10F3E000FFF756F9002803D0FFE701200390FFE75D
:10F3F000FFE7FFE703980AB070BDC046E0010020B8
:10F4000007001B00F0580300B058030080B58CB013
:10F410000B900A910B988100554840580990099823
:10F4200080300490049800680003000FFEF7E2FDAE
:10F43000014605A80170007802900B980021FFF7A3
:10F4400003FA01460298884207DDFFE70B98002186
:10F45000FFF7FAF905A90870FFE705980A9948220D
:10F460008854049800680A9908600498006880022B
:10F47000C00F002808D0FFE704984068072149071B
:10F4800088430A99486006E004984068C000400D2F
:10F490000A994860FFE705A80078800807A9087066
:10F4A00008A900200870FFE708A8007807A90978D4
:10F4B000884233DAFFE7049808A901910A7892009C
:10F4C00080188068000E0A9A0B789B00D218107280
:10F4D00004980A78920080188068000C0A9B0A78C9
:10F4E0009200D218507204980A78920080188068AE
:10F4F000000A0A9B0A789200D218907204980A783F
:10F500009200801880680A9A097889008918C87260
:10F51000FFE70898401C08A90870C5E70498083060
:10F5200003900798800008A90870FFE708A80078F2
:10F5300005A90978884218DAFFE708AA11783C2360
:10F540000846184003231940401AC01C06A9087039
:10F5500003980978405C0A99127889180872FFE7C5
:10F560000898401C08A90870E0E70CB080BDC046B0
:10F5700034590300B0B58EB0059101460598129C30
:10F580000D910CA908700B920A93002006900D981B
:10F59000097809AA08ABFFF7D9F8012803D1FFE7DA
:10F5A0000120069035E00D980CA90978FEF7B6FB0E
:10F5B000012803D1FFE70120069029E008980068A0
:10F5C0000001000F0790079800280BD0FFE707986D
:10F5D000082807D0FFE70798092803D0FFE7022093
:10F5E000069014E00D980CA904910978FEF7CAFB67
:10F5F00004990D9809780B9A0A9B129C0025029594
:10F600000C250195009400F0EBFA0690FFE7FFE768
:10F61000FFE706980EB0B0BD80B584B003900291AC
:10F62000114800780E2805DCFFE70F490878401CD8
:10F63000087003E00C490A200870FFE703980521D1
:10F640000902884204D1FFE708490120087200E05E
:10F65000FFE705480178039B02980090044A0020C8
:10F66000FFF788FF04B080BD0800002030030020B1
:10F670003C01002010B586B00590049105988100EA
:10F68000F0484058039003980068C001C00F0290F2
:10F6900000200190029800280AD1FFE70598FEF7A4
:10F6A0009DFF002803D0FFE701200190FFE7FFE75F
:10F6B0000198002855D1FFE704980068002814D06D
:10F6C000FFE70498406800280FD0FFE7049880689F
:10F6D00000280AD0FFE70498C068002805D0FFE79B
:10F6E00004980069002803D1FFE70120019037E06A
:10F6F00004980068421E0399086D9206120C3F237D
:10F700009B0298438018086504988068421E0399FC
:10F71000086D1F231A4098438018086504984068B4
:10F72000421E0399086DD206920D5C01A043801819
:10F7300008650498C068421E0399086D9205520836
:10F74000134C20408018086504980069421E0399F4
:10F75000086DD206D20A1B04984380180865FFE79B
:10F76000FFE7019800280FD1FFE7029800280AD18F
:10F77000FFE70598FEF78CFF002803D0FFE7012084
:10F780000190FFE7FFE7FFE7019806B010BDC04614
:10F79000FFFF1F80B0B586B00590049105988100E9
:10F7A000C9484058039003980068C001C00F0290F8
:10F7B00000200190029800280AD1FFE70598FEF783
:10F7C0000DFF002803D0FFE701200190FFE7FFE7CE
:10F7D0000198002864D1FFE704980068002814D03D
:10F7E000FFE70498406800280FD0FFE7049880687E
:10F7F00000280AD0FFE70498C068002805D0FFE77A
:10F8000004980069002803D1FFE70120019046E039
:10F81000049803680399244A00928858DB065B0C1D
:10F820001F24A402A043C018885004988068431E77
:10F830000399885807242340A043C018885004988F
:10F840004068431E039988585B071B0EE025A843B8
:10F85000C01888500498C068431E039988589B05B7
:10F860009B08124D2840C018885004980069431E18
:10F87000039988585B075B0B2404A043C018885089
:10F88000029800280AD1FFE70598FEF701FF00283B
:10F8900003D0FFE701200190FFE7FFE7FFE7FFE765
:10F8A000019806B0B0BDC046040C0000FFFF0FC0B9
:10F8B00080B586B00590049105988100C7484058EE
:10F8C00003900020029003980068C001C00F0190CF
:10F8D000019800280AD1FFE70598FEF77FFE00286F
:10F8E00003D0FFE701200290FFE7FFE7029800281E
:10F8F00061D1FFE70498009004284CD8009881005B
:10F9000001A040588746C0461DF902003FF9020099
:10F9100057F9020087F9020089F902000399486843
:10F9200008229043486003994868012213039843D2
:10F93000486003990868D205904308602CE0039959
:10F94000486808221043486003994868012212035E
:10F950009043486020E0039948680822904348603B
:10F960000399486801231A03104348600399086803
:10F970005A04904308600399032082028858DB03ED
:10F980009843885008E007E0039908680122D207ED
:10F990001043086000E0FFE7049803280AD0FFE75F
:10F9A0000598FEF775FE002803D0FFE701200290BE
:10F9B000FFE7FFE7FFE7029806B080BD80B586B09D
:10F9C000059004910598810084484058039005985B
:10F9D00081001D4840580290002001900398006863
:10F9E000C001C00F0090009800280AD1FFE70598D9
:10F9F000FEF7F4FD002803D0FFE701200190FFE7A8
:10FA0000FFE7019800281AD1FFE7039800688000FB
:10FA1000C00F002804D0FFE7049802998864FFE72C
:10FA2000009800280AD1FFE70598FEF731FE00286C
:10FA300003D0FFE701200190FFE7FFE7FFE7019810
:10FA400006B080BD2C5903003459030080B586B040
:10FA500005900491059881006048405803900398F0
:10FA60000068C001C00F0290002001900298002899
:10FA70000AD1FFE70598FEF7B1FD002803D0FFE7A4
:10FA800001200190FFE7FFE70198002819D1FFE767
:10FA9000049A03990868D207D20B01231B049843E8
:10FAA00080180860029800280AD1FFE70598FEF741
:10FAB000EFFD002803D0FFE701200190FFE7FFE7FB
:10FAC000FFE7019806B080BD2C59030010B586B041
:10FAD0000590049105988100ED484058039000205E
:10FAE000029003980068C001C00F0190019800289F
:10FAF0000AD1FFE70598FEF771FD002803D0FFE764
:10FB000001200290FFE7FFE70298002863D1FFE79A
:10FB100004980068002814D0FFE704984068002883
:10FB20000FD0FFE70498806800280AD0FFE7049808
:10FB3000C068002805D0FFE704980069002803D1B9
:10FB4000FFE70120029045E004980068421E0399F7
:10FB5000486807231A4098438018486004988068D2
:10FB6000421E039948685207520B1C04A043801898
:10FB7000486004984068421E039948685207920AF8
:10FB8000DB049843801848600498C0680006039915
:10FB90004B68FF2212069343C018801848600498EF
:10FBA0000069421E039948689207120A03239B05C5
:10FBB000984380184860019800280AD1FFE705980B
:10FBC000FEF766FD002803D0FFE701200290FFE763
:10FBD000FFE7FFE7FFE7029806B010BD2C590300CE
:10FBE000B0B590B00C4601461698159D149D0F9126
:10FBF0000EA90C700D920C930BAA10700F98820036
:10FC0000A34880580A90002001900F98097804AA10
:10FC100003ABFEF79BFD012803D1FFE70120019014
:10FC200033E10D980079412803D3FFE701200190CB
:10FC30002AE10398083002900F980EA90978FEF780
:10FC40006DF8012803D1FFE7012001901BE10A981C
:10FC500000680005C00F00280FD0FFE70D9840692D
:10FC6000012809D1FFE70A9903208202885801235D
:10FC7000DB0718438850FFE7FFE70D9800790090F5
:10FC80000F980499FEF7E0FD01460098884203DDD5
:10FC9000FFE701200190F5E00D98007906A905AA7B
:10FCA000FEF748F9149800286ED0FFE70D98007908
:10FCB000800808A9087009A900200870FFE709A8B2
:10FCC000007808A90978884218DAFFE7149809A98A
:10FCD00009788A008118805C00064B781B04C018E4
:10FCE0008B781B02C018C97840180399891888605E
:10FCF000FFE70998401C09A90870E0E70898800010
:10FD000009A90870FFE709A800780D9909798842C8
:10FD100017DAFFE709A90A783C23104618400323A5
:10FD20001A40801AC01C07AA107014980978405C09
:10FD3000029912788854FFE70998401C09A90870B5
:10FD4000E1E70D98007909A90870FFE709A8007894
:10FD500005A90978884216DAFFE709A801783C224C
:10FD60000846104003221140401AC01C07AA107018
:10FD70000D98007C029912788854FFE70998401C7E
:10FD800009A90870E2E7FFE70399002008600399DA
:10FD90004860069A039908681207120B0F231B0488
:10FDA0009843801808600D980068012818D1FFE773
:10FDB0000C98394B1840039948600B9A039948688E
:10FDC00052071840801848600399086801225305BB
:10FDD00018430860039908689205904308601DE085
:10FDE0000C9A039948685205D2082A4B184080188B
:10FDF00048600B9A03994868520707235B079843AA
:10FE000080184860039908680122530598430860E8
:10FE100003990868920590430860FFE70D98806891
:10FE2000012807D1FFE70399086801221205104352
:10FE30000860FFE7039908680F22120690430860E4
:10FE40000D98C068012807D1FFE7039908680122CF
:10FE5000D20710430860FFE70D98426903990868CC
:10FE6000D207520801239B07984380180860159A0F
:10FE700003990868120712090F231B06984380187C
:10FE80000860FFE7FFE7FFE7FFE7019810B0B0BDAC
:10FE90002C590300FFFF03E0FFFFFF1F0A48006823
:10FEA000C00F002805D0FFE75B2000060649086068
:10FEB000FFE7054908680122530298430860086873
:10FEC000D2071043086070471C40064080B58AB0D6
:10FED0000990089109988008079007988100CB48FD
:10FEE0004058069000200590012004900998001FBA
:10FEF0000390832800D982E10398810001A0405833
:10FF00008746C04615010300FF010300FF010300FF
:10FF1000FF01030015010300FF010300FF010300BF
:10FF2000FF01030015010300FF010300FF010300AF
:10FF3000FF01030015010300FF010300FF0103009F
:10FF4000FF01030015010300FF010300FF0103008F
:10FF5000FF01030015010300FF010300FF0103007F
:10FF6000FF0103006D010300FF010300FF01030017
:10FF7000FF0103006D010300FF010300FF01030007
:10FF8000FF01030015010300FF010300FF0103004F
:10FF9000FF01030015010300FF010300FF0103003F
:10FFA000FF01030015010300FF010300FF0103002F
:10FFB000FF01030015010300FF010300FF0103001F
:10FFC000FF01030015010300FF010300FF0103000F
:10FFD000FF01030015010300FF010300FF010300FF
:10FFE000FF01030015010300FF010300FF010300EF
:10FFF000FF01030015010300FF010300FF010300DF
:020000040003F7
:10000000FF01030015010300FF010300FF010300CE
:10001000FF01030015010300FF010300FF010300BE
:10002000FF010300FF010300FF010300FF010300C4
:10003000FF010300FF010300FF010300FF010300B4
:10004000FF010300FF010300FF010300FF010300A4
:10005000FF010300FF010300FF010300FF01030094
:10006000FF010300FF010300FF010300FF01030084
:10007000FF01030015010300FF010300FF0103005E
:10008000FF01030015010300FF010300FF0103004E
:10009000FF01030015010300FF010300FF0103003E
:1000A000FF01030015010300FF010300FF0103002E
:1000B000FF01030015010300FF010300FF0103001E
:1000C000FF010300FF010300FF010300FF01030024
:1000D000FF010300FF010300FF010300FF01030014
:1000E000FF010300FF010300FF010300FF01030004
:1000F000FF010300FF010300FF010300FF010300F4
:10010000FF010300FF010300A1010300B701030089
:10011000DB010300069800680005000F401C0490F6
:10012000069800684006400F401E029003281BD826
:100130000298810001A040588746C0464D01030047
:10014000550103005D010300630103007D200002EF
:1001500005900AE00120C003059006E03B480590A9
:1001600003E00898059000E0FFE749E00698006882
:100170000005000F401C0490069800684006400FE0
:100180000190012804D0FFE70198022803D005E080
:100190002E48059003E00898059000E0FFE72FE067
:1001A000344800680005000F401C0490089800F0D7
:1001B0002FF8059024E02F4801680905090F491C14
:1001C000049100680006000F401C04994843049005
:1001D000089800F01DF8059012E02648016809050E
:1001E000090F491C049100680F210840401C049924
:1001F00048430490089800F00BF8059000E0FFE7F2
:1002000005980499FCF754FB0AB080BDA45903007B
:1002100082B0019000200090164800684003400F13
:10022000022803D1FFE7019800900BE01148006815
:100230004003400F012803D1FFE70448009000E08D
:10024000FFE7FFE7009802B07047C0460090D00378
:1002500081B0084800684003400F012803D1FFE740
:100260000120009002E000200090FFE7009801B01C
:100270007047C0460840064086B005900491059836
:100280008008039003988100B848405802900020ED
:1002900001900598001F00906C2800D960E100983B
:1002A000810001A0405887465D04030061050300FA
:1002B00061050300610503005D040300610503009F
:1002C00061050300610503005D040300610503008F
:1002D00061050300610503005D040300610503007F
:1002E00061050300610503005D040300610503006F
:1002F00061050300610503005D040300610503005F
:100300006105030061050300930403006105030018
:100310006105030061050300930403006105030008
:1003200061050300610503005D040300610503002E
:1003300061050300610503005D040300610503001E
:1003400061050300610503005D040300610503000E
:1003500061050300610503005D04030061050300FE
:1003600061050300610503005D04030061050300EE
:1003700061050300610503005D04030061050300DE
:1003800061050300610503005D04030061050300CE
:1003900061050300610503005D04030061050300BE
:1003A00061050300610503005D04030061050300AE
:1003B00061050300610503000505030061050300F5
:1003C0006105030061050300610503006105030089
:1003D0006105030061050300610503006105030079
:1003E0006105030061050300610503006105030069
:1003F0006105030061050300610503006105030059
:100400006105030061050300610503006105030048
:1004100061050300610503005D040300610503003D
:1004200061050300610503005D040300610503002D
:1004300061050300610503005D040300610503001D
:1004400061050300610503005D040300610503000D
:1004500061050300610503005D0403000298006864
:10046000C00F002805D0FFE702995B200006086056
:10047000FFE7049A029908685207520E70239843C6
:1004800080180860029908680122D20710430860AA
:1004900069E002980068C00F002805D0FFE70299C4
:1004A0005B2000060860FFE70498032808D1FFE7F7
:1004B00002990868102210436022904308601AE0F5
:1004C0000498042808D1FFE7029908682022104305
:1004D0005022904308600DE00498002806D1FFE701
:1004E0000299086870229043086002E001200190A0
:1004F000FFE7FFE7FFE7029908680122D2071043F0
:10050000086030E002980068C00F002805D0FFE7BF
:1005100002995B2000060860FFE7049803280AD1CF
:10052000FFE7049A029908685207520E7023984315
:10053000801808600DE00498002806D1FFE70299B2
:10054000086870229043086002E001200190FFE7F4
:10055000FFE7029908680122D2071043086002E011
:1005600001200190FFE7019806B07047A4590300ED
:1005700080B584B003900291019200200090404821
:100580000068C00F002805D0FFE75B2000063C494B
:100590000860FFE7029A3A490868D207920F0223DF
:1005A000984380180860FFF753FE002807D1FFE743
:1005B000334908680122D2071043086045E0039AD6
:1005C00023490868D207520F042398438018086013
:1005D000019B086801221340D2431040C0180860F4
:1005E000086802231843086025490868104008601D
:1005F0000198002815D1FFE700F0A6FA204801680D
:100600000122114301600168D207114301600068B3
:10061000C003C00F002803D0FFE701200090FFE7D0
:1006200009E0174908680122104308600868D207EA
:1006300010430860FFE70098002805D1FFE7042079
:1006400000F006FA0090FFE7FFE7009804B080BDD5
:10065000184006400A480068C00F002805D0FFE790
:100660005B20000606490860FFE70549086801228B
:100670005302984308600868D20710430860704727
:100680001440064085B004900391049880080290BD
:1006900002988100BF48405801900498001F0090C4
:1006A000832800D973E10098810001A04058874653
:1006B000C10803008F0903008F0903008F0903009D
:1006C000C10803008F0903008F0903008F0903008D
:1006D000C10803008F0903008F0903008F0903007D
:1006E000C10803008F0903008F0903008F0903006D
:1006F000C10803008F0903008F0903008F0903005D
:10070000C10803008F0903008F0903008F0903004C
:10071000C10803008F0903008F0903008F0903003C
:10072000C10803008F0903008F0903008F0903002C
:10073000C10803008F0903008F0903008F0903001C
:10074000C10803008F0903008F0903008F0903000C
:10075000C10803008F0903008F0903008F090300FC
:10076000C10803008F0903008F0903008F090300EC
:10077000C10803008F0903008F0903008F090300DC
:10078000C10803008F0903008F0903008F090300CC
:10079000C10803008F0903008F0903008F090300BC
:1007A000C10803008F0903008F0903008F090300AC
:1007B000C10803008F0903008F0903008F0903009C
:1007C000C10803008F0903008F0903008F0903008C
:1007D0008F0903008F0903008F0903008F090300AD
:1007E0008F0903008F0903008F0903008F0903009D
:1007F0008F0903008F0903008F0903008F0903008D
:100800008F0903008F0903008F0903008F0903007C
:100810008F0903008F0903008F0903008F0903006C
:10082000C10803008F0903008F0903008F0903002B
:10083000C10803008F0903008F0903008F0903001B
:10084000C10803008F0903008F0903008F0903000B
:10085000C10803008F0903008F0903008F090300FB
:10086000C10803008F0903008F0903008F090300EB
:100870008F0903008F0903008F0903008F0903000C
:100880008F0903008F0903008F0903008F090300FC
:100890008F0903008F0903008F0903008F090300EC
:1008A0008F0903008F0903008F0903008F090300DC
:1008B0008F090300F90803002D0903005F090300F5
:1008C00001980068C00F002805D0FFE701995B2060
:1008D00000060860FFE7039A019908681207120DE5
:1008E0000F231B02984380180860019908680122B1
:1008F000D207104308604BE054480068C00F00283E
:1009000005D0FFE75B20000650490860FFE74F492C
:1009100008680F2212029043039A120210430860E3
:1009200008680122D2071043086031E04748006898
:10093000C00F002805D0FFE75B2000064349086090
:10094000FFE742490868F0229043039A12011043DE
:10095000086008680122D2071043086018E03B488D
:100960000068C00F002805D0FFE75B20000637496C
:100970000860FFE7354908680F229043039A104347
:10098000086008680122D2071043086000E0FFE712
:1009900005B07047A459030080B582B001900020D3
:1009A00000900198012823D1FFE7032000F050F8C0
:1009B000002803D0FFE70120009018E023480068DA
:1009C000C00F002805D0FFE75B2000061F49086024
:1009D000FFE71E490868072212049043012213040E
:1009E000C01808600868D20710430860FFE72AE0D3
:1009F0000198002823D1FFE7042000F029F80028FF
:100A000003D0FFE70120009018E010480068C00FF5
:100A1000002805D0FFE75B2000060C490860FFE7CF
:100A20000A49086807221204904301225304C0189F
:100A300008600868D20710430860FFE702E0012061
:100A40000090FFE7FFE7009802B080BD0C40064031
:100A500084B0039000200290012001900398401E72
:100A60000090032860D80098810001A04058874674
:100A7000810A0300D50A0300AB0A0300FF0A030042
:100A8000FFE702982B4988420ED8FFE70298401CE6
:100A900002902C4800684007C00F002803D0FFE7F1
:100AA0000020019000E0ECE741E0FFE702982149D7
:100AB00088420ED8FFE70298401C02902048006848
:100AC000C003C00F002803D0FFE70020019000E022
:100AD000ECE72CE0FFE70298164988420ED8FFE7C2
:100AE0000298401C0290154800688005C00F00283D
:100AF00003D0FFE70020019000E0ECE717E0FFE7FC
:100B000002980C4988420ED8FFE70298401C0290D8
:100B100009480068C003C00F002803D0FFE7002089
:100B2000019000E0ECE702E000200190FFE701986F
:100B300004B070479F8601001440064000800240C8
:100B40001C40064004D0074080B584B00C48029099
:100B5000002101910B4909680905090F491C0391FE
:100B60000399FBF7A5FE401C0290FFE70198411C8A
:100B700001910299884201D2FFE7F7E704B080BDF6
:100B8000AC0D00000840064080B586B060200090A3
:100B900004210491FFF770FB009801F093FF049982
:100BA00064200190FFF768FB019801F08BFF049926
:100BB00068200290FFF760FB029801F083FF049920
:100BC0006C200390FFF758FB039801F07BFF04991A
:100BD00070200590FFF750FB059801F073FF7C2013
:100BE00001F070FF06B080BD82B000900098002830
:100BF0000FD0FFE700984078C007002807D0FFE734
:100C000000990020487001A90120087006E0FFE764
:100C100000E0FFE701A900200870FFE701A80078C5
:100C200002B0704781B000900098002818D0FFE70C
:100C300000980078C007002801D0FFE70FE0009976
:100C40004888401C4880009948888988884204DB8D
:100C5000FFE700998888488000E0FFE7FFE700E0B1
:100C6000FFE701B0704781B00090009800281DD0C8
:100C7000FFE700980078C007002807D0FFE7009939
:100C8000002008700099012048700EE00099488803
:100C90008988884204DBFFE700990120487000E062
:100CA000FFE7009900204880FFE700E0FFE701B080
:100CB000704782B0019068460180019800280CD0EE
:100CC000FFE70199012008700199002048700199FF
:100CD000488000980199888000E0FFE702B07047E3
:100CE00080B584B00390029103980299012200928A
:100CF0000023019301F07EF90099019A039801F015
:100D000057F904B080BD80B584B003900291039878
:100D1000029901220192002301F06CF9019A0398D3
:100D2000114601F045F904B080BD80B584B0039050
:100D300002910192039802990222002301F05AF9CC
:100D40000398019901231A4601F054F904B080BDBB
:100D500080B582B001900091019800990222002391
:100D600001F07EF901980099891C01231A4601F0CF
:100D700077F902B080BD80B586B001920246019835
:100D80000592049103AA02921070059804991278B2
:100D9000002301F065F9029A0598049912788918E0
:100DA00001231A4601F05CF906B080BD80B588B019
:100DB0003A4801F029FA032002900221049101F03F
:100DC000F1F9029804990122069201F0B5FA02980D
:100DD000049A114601F0E8FA02980499002203925D
:100DE00000F074F8029804990922019201F06CFA5B
:100DF0000499084601F0D6F90499069A084601F0CC
:100E00009BFA049A1046114601F0CEFA039A04990F
:100E1000084600F05BF8019A0499084601F054FA7C
:100E20000299049801F0BEF902990498069A01F01B
:100E300083FA0299049A104601F0B6FA0299039ACD
:100E4000049800F043F8019A0299049801F03CFAE2
:100E500004980821059101F0A5F904980599069ACE
:100E600001F06AFA029A0498059901F09DFA039A32
:100E70000498059900F02AF8049805990A2201F0CF
:100E800023FA06991E20079003F048FD079803F007
:100E9000E3FC1F2003F0E0FC08B080BD4D240300FC
:100EA00084B003900291039881001F48405801903C
:100EB0000198006900900298012181400098084043
:100EC00000900098411E884104B0704785B004909E
:100ED00003910292049881001348405801900198B0
:100EE0004069009003980121814000988843009058
:100EF0000299039881400098084300900098019956
:100F0000486105B07047C04683B0029001910298D5
:100F100081000548405800900199012088400099BF
:100F2000486003B07047C0463C59030080B50020BC
:100F300000F06CF980BD80B5012000F067F980BD3C
:100F400080B501200C2100F007F880BD80B501209C
:100F5000042100F001F880BD83B002900191029855
:100F60008100A8484058009001988100A648405848
:100F70000099C86503B0704782B001900198810064
:100F80008348405800900099886801229043886007
:100F900002B0704782B00190019881007C484058AF
:100FA00000900099886801221043886002B0704761
:100FB00010B583B0029001910298810074484058A6
:100FC0000090019802680099486C03242240E34392
:100FD000184080184864019842680099886C224043
:100FE00018408018886403B010BDC04684B00390D8
:100FF0000291039881008348405800900098006E49
:10100000029901228A401040C8400190019804B022
:101010007047C04684B003900291039881005C48F9
:1010200040580190029842680199C8689207120ED0
:10103000C02398438018C86002984068401E009002
:1010400005285DD80098810001A040588746C04619
:10105000691003008F100300B51003000111030095
:1010600001110300DB1003000199C86A494A1040CE
:10107000C030C8620199086B1040C73008630199FD
:10108000486D01221043FE229043486539E00199E2
:10109000486B404A1040283048630199886B1040E3
:1010A0002F3088630199486D01221043FE2290433E
:1010B000486526E00199C86B364A1040801DC86318
:1010C0000199086C1040103008640199886D012264
:1010D0001043FE229043886513E00199486B2D4A26
:1010E0001040093048630199886B104011308863C3
:1010F0000199486D02221043FD229043486500E0AB
:10110000FFE702980068002821D1FFE70199C8682D
:1011100001231843C8600199C86802221043C860BF
:10112000029882680199C868D207520D9B029843C1
:101130008018C86002980069401E41424841820000
:101140000199C868042398438018C8601EE001997B
:10115000C86801239843C8600199C8680222904377
:10116000C860029882680199C868D207920D5B0234
:1011700098438018C8600298C2680199886A064B33
:101180001A40064B184080188862FFE704B0704789
:101190008C5903000000FFFFFF03000000FCFFFF6D
:1011A00083B00290019100920098029938224A433C
:1011B000FA498918019A9200885003B07047C046D6
:1011C00084B003900291019203988100FD48405839
:1011D00000900198002809D1FFE702988100EE48AD
:1011E00042580099C8699043C86108E0029881009C
:1011F000E94842580099C8691043C861FFE704B044
:101200007047C046945903005059030080B584B01C
:10121000039003988100DF484058019003988100B3
:10122000E848405800900098C06D02900098C1694D
:1012300002980840029002980099C8650298D64921
:101240000968084216D0FFE7039838214143D34884
:101250004058002807D0FFE7039838214143CF4882
:101260004058804705E00199C86901229043C86150
:10127000FFE7FFE70298C8494968084218D0FFE72E
:10128000039838214143C54840184068002808D0D9
:10129000FFE7039838214143C04840184068804721
:1012A00005E00199C86902229043C861FFE7FFE7A2
:1012B0000298B9498968084218D0FFE70398382195
:1012C0004143B64840188068002808D0FFE70398DB
:1012D00038214143B14840188068804705E00199B2
:1012E000C86904229043C861FFE7FFE70298AA4952
:1012F000C968084218D0FFE7039838214143A7483E
:101300004018C068002808D0FFE7039838214143FF
:10131000A2484018C068804705E00199C8690822C2
:101320009043C861FFE7FFE702989B4909690842BB
:1013300018D0FFE7039838214143984840180069C6
:10134000002808D0FFE7039838214143934840180C
:101350000069804705E00199C86910229043C8617F
:10136000FFE7FFE702988C494969084218D0FFE778
:10137000039838214143894840184069002808D023
:10138000FFE703983821414384484018406980476B
:1013900005E00199C86920229043C861FFE7FFE793
:1013A00002987D498969084219D0FFE703983821DE
:1013B00041437A4840188069002808D0FFE7039825
:1013C00038214143754840188069804706E00199FB
:1013D000C869012292059043C861FFE7FFE70298C0
:1013E0006D49C969084219D0FFE703983821414384
:1013F0006A484018C069002808D0FFE703983821E0
:10140000414366484018C069804706E00199C869B1
:101410000122D2059043C861FFE7FFE702985E49C9
:10142000096A084219D0FFE70398382141435B4815
:101430004018006A002808D0FFE70398382141438C
:1014400056484018006A804706E00199C8690122A1
:1014500012069043C861FFE7FFE702984E49496AC8
:10146000084219D0FFE70398382141434B48401800
:10147000406A002808D0FFE70398382141434748D5
:101480004018406A804706E00199C8690122520667
:101490009043C861FFE7FFE702983F49896A084225
:1014A00019D0FFE70398382141433C484018806A2F
:1014B000002808D0FFE703983821414337484018F7
:1014C000806A804706E00199C8690122920690432C
:1014D000C861FFE7FFE702982F49C96A084219D09F
:1014E000FFE70398382141432C484018C06A002880
:1014F00008D0FFE703983821414328484018C06AC4
:10150000804706E00199C8690122D2069043C8616C
:10151000FFE7FFE702982049096B084219D0FFE76F
:101520000398382141431D484018006B002808D01B
:10153000FFE703983821414318484018006B804763
:1015400006E00199C869012292079043C861FFE74C
:10155000FFE702981049496B084219D0FFE703984A
:10156000382141430D484018406B002808D0FFE760
:1015700003983821414309484018406B804706E0F2
:101580000199C8690122D2079043C861FFE7FFE7CC
:1015900004B080BD8C59030050590300680200203C
:1015A00083B0029001910298810028484058009031
:1015B000019840020121090240180099086203B015
:1015C0007047C0469459030080B584B00020019054
:1015D0000C21FFF7C1FC01981549087003A902917D
:1015E000087000F081FF019800F024F8029908705B
:1015F00004B080BD84B00390029101A90A700398E1
:1016000082001248805800900298400209784018E1
:101610000099086204B0704780B500200421FFF7EC
:101620009BFC03490120087000F086FF80BDC04686
:10163000B000002082B0019001988100034840581A
:1016400000900098006AC0B202B07047945903003D
:1016500083B00290019102988100074840580090A1
:10166000019A0099486A054B1A40054B18408018AA
:10167000486203B07047C0468C590300FF03000066
:1016800000FCFFFF80B58AB0402001900421059145
:10169000FEF7F2FD019801210791FEF7F3FF019893
:1016A00001F05EFB019801F00DFA00200890022184
:1016B0000322009200F040FE009A0898114600F0C4
:1016C0003BFE08983B4A0C210491FFF769FD049901
:1016D000079A0898FFF774FD05990898364AFFF7AE
:1016E0005FFD0599079A0898FFF76AFD0898FFF7CC
:1016F00043FC08983149FFF78DFC08983049069162
:10170000FFF756FC01990898FFF7A2FF0898FFF72A
:1017100041FC08990520039003F038F9039803F081
:10172000BBF8059944200290FEF7A6FD07990298A0
:10173000FEF7A8FF029801F013FB029801F0C2F92E
:10174000039A0899084600F0F7FD039A079908984C
:1017500000F0F2FD049907981A4AFFF721FD049959
:10176000079A1046FFF72CFD05990798164AFFF7D0
:1017700017FD0599079A1046FFF722FD0798FFF716
:10178000FBFB07981149FFF745FC06990798FFF7FF
:101790000FFC07987721FFF75BFF0798FFF7FAFB2D
:1017A00008990620099003F0F1F8099803F074F8FD
:1017B0000AB080BDC91503001916030014010020EA
:1017C0009C590300410F03004D0F03002801002026
:1017D00080B584B00390029101920398029901228E
:1017E0000092002300F006FC009B039801991A4622
:1017F00000F000FC04B080BD80B584B038480078AB
:10180000C007002865D1FFE736480078012805DCCD
:10181000FFE734490878401C087059E031480078E7
:1018200002280FD1FFE72F49032008700020039002
:10183000FFF7A2FB03986821FFF70AFF0398FFF761
:10184000A9FB44E027480078032805DCFFE7254989
:101850000878401C087039E022480078042833D109
:10186000FFE72049042008701F4800780B2811D892
:10187000FFE71D4802900078062141431B484018AD
:10188000811C021D0020FFF750FA02990878401CC5
:10189000087018E0144800780C2812D1FFE71249AC
:1018A0000D20087000200190FFF766FB0198682169
:1018B000FFF7CEFE0198FFF76DFB09490120087084
:1018C00000E0FFE7FFE700E0FFE7FFE7FFE7FFE7F4
:1018D00000E0FFE7024800780121084004B080BD25
:1018E0008101002083010020820100203255030085
:1018F00080B59EB01DA9002008801CA90870C348AF
:101900000078002851D1FFE702200521FFF7C8FA2F
:1019100001282CD1FFE7C2480088002827D0FFE724
:10192000C0480088C82806DBFFE7BF4802F0D5FBA7
:1019300003F0A0F8FFE7BA480188491E018000883B
:10194000002813D1FFE7B1490878401C0870B74957
:101950000120087000200990FFF70EFB099868210C
:10196000FFF776FE0998FFF715FBFFE7FFE7022078
:101970000521FFF795FA002816D1FFE7A84928208E
:101980000880A8490888401C088080B2C82803DB6A
:10199000FFE7C820089003E0A24800880890FFE70E
:1019A0000898A0490880FFE723E1984800780228BA
:1019B00005DCFFE795490878401C087018E193485A
:1019C000007803281BD1FFE7052080011DA906919F
:1019D00008801CAA07922020107000200590FFF7B5
:1019E000A4F905980699079A02230B8043231370E4
:1019F000FFF79BF985490878401C0870F7E0834899
:101A00000078052805DCFFE780490878401C08704D
:101A1000ECE07E480078062810D1FFE70020049013
:101A2000FFF7AAFA04986821FFF712FE0498FFF75F
:101A3000B1FA76490878401C0870D6E073480078FF
:101A4000082805DCFFE771490878401C0870CBE0E6
:101A50006E480078092800D0C5E06D4800880390E2
:101A6000232800D9B1E00398810001A0405887469F
:101A7000011B0300CB1B03006B1B0300CB1B0300EC
:101A8000CB1B0300CB1B0300CB1B0300CB1B0300B2
:101A9000CB1B0300CB1B0300CB1B03009B1B0300D2
:101AA000CB1B0300CB1B0300CB1B0300CB1B030092
:101AB000CB1B0300CB1B0300CB1B0300CB1B030082
:101AC000CB1B0300CB1B0300CB1B0300CB1B030072
