S3250000E00000400020DDE000000DE100000FE1000000000000000000000000000000000000FF
S3250000E02000000000000000000000000011E10000000000000000000013E1000015E10000FE
S3250000E04017E100001BE100001FE1000023E1000027E100002BE100002FE1000033E100008A
S3250000E06037E100003BE100003FE1000043E1000047E100004BE100004FE1000053E100006A
S3250000E08057E100005BE100005FE1000063E1000067E100006BE100006FE1000073E100004A
S3250000E0A077E100007BE100007FE1000083E1000087E100008BE100008FE1000093E100002A
S3250000E0C00348854600F0D2F8004800477D1701000040002000C0FF1F0040002072B62E4909
S3250000E0E009682E4A1268521A013A05DD0020042308601944043AFBDA00BF2948294901600C
S3250000E1000A6882F3088862B627488047FEE7FEE7FEE7FEE7FEE725480047254800472548E6
S3250000E120004725480047254800472548004725480047254800472548004725480047254839
S3250000E140004725480047254800472548004725480047254800472548004725480047254819
S3250000E1600047254800472548004725480047254800472548004725480047254800472548F9
S3250000E18000472548004725480047254800472548004725480047FEE7D4E00000D8E000005D
S3250000E1A008ED00E000E00000C1E0000097E1000097E1000097E1000097E1000097E10000AB
S3250000E1C097E1000097E1000097E1000097E1000097E100004D0501005705010061050100CA
S3250000E1E06B05010097E1000005F1000097E10000CF020100D9020100E302010097E10000B6
S3250000E20097E1000097E1000097E1000097E1000001F70000ED15010097E100000DF900009F
S3250000E220B5F7000085F4000001F5000070B50446002903D000202022012310E0002801D0E3
S3250000E2400020C043C046C0460DE02546D5408D4205D30D469540641B1D46954040191546E2
S3250000E260521E002DF1DC214670BD00001CB5094800900948019005460126009C05E0E368C8
S3250000E28007CC33430C3C98471034AC42F7D3FFF71BFF0000F4190100241A01000A480068F5
S3250000E2A0C00F002805D0FFE75B20000606490860FFE705490868012253029843086008689F
S3250000E2C0D2071043086070471C40064080B58AB00990089109988008079007988100CB48B7
S3250000E2E04058069000200590012004900998001F0390832800D982E10398810001A04058F1
S3250000E3008746C04615E50000FFE50000FFE50000FFE5000015E50000FFE50000FFE50000BC
S3250000E320FFE5000015E50000FFE50000FFE50000FFE5000015E50000FFE50000FFE500008B
S3250000E340FFE5000015E50000FFE50000FFE50000FFE5000015E50000FFE50000FFE500006B
S3250000E360FFE500006DE50000FFE50000FFE50000FFE500006DE50000FFE50000FFE500009B
S3250000E380FFE5000015E50000FFE50000FFE50000FFE5000015E50000FFE50000FFE500002B
S3250000E3A0FFE5000015E50000FFE50000FFE50000FFE5000015E50000FFE50000FFE500000B
S3250000E3C0FFE5000015E50000FFE50000FFE50000FFE5000015E50000FFE50000FFE50000EB
S3250000E3E0FFE5000015E50000FFE50000FFE50000FFE5000015E50000FFE50000FFE50000CB
S3250000E400FFE5000015E50000FFE50000FFE50000FFE5000015E50000FFE50000FFE50000AA
S3250000E420FFE50000FFE50000FFE50000FFE50000FFE50000FFE50000FFE50000FFE50000B6
S3250000E440FFE50000FFE50000FFE50000FFE50000FFE50000FFE50000FFE50000FFE5000096
S3250000E460FFE50000FFE50000FFE50000FFE50000FFE5000015E50000FFE50000FFE5000060
S3250000E480FFE5000015E50000FFE50000FFE50000FFE5000015E50000FFE50000FFE500002A
S3250000E4A0FFE5000015E50000FFE50000FFE50000FFE5000015E50000FFE50000FFE500000A
S3250000E4C0FFE50000FFE50000FFE50000FFE50000FFE50000FFE50000FFE50000FFE5000016
S3250000E4E0FFE50000FFE50000FFE50000FFE50000FFE50000FFE50000FFE50000FFE50000F6
S3250000E500FFE50000FFE50000A1E50000B7E50000DBE50000069800680005000F401C049041
S3250000E520069800684006400F401E029003281BD80298810001A040588746C0464DE50000D3
S3250000E54055E500005DE5000063E500007D20000205900AE00120C003059006E03B4805905C
S3250000E56003E00898059000E0FFE749E0069800680005000F401C0490069800684006400FE9
S3250000E5800190012804D0FFE70198022803D005E02E48059003E00898059000E0FFE72FE08E
S3250000E5A0344800680005000F401C0490089800F02FF8059024E02F4801680905090F491CB2
S3250000E5C0049100680006000F401C049948430490089800F01DF8059012E0264801680905FA
S3250000E5E0090F491C049100680F210840401C049948430490089800F00BF8059000E0FFE71D
S3250000E60005980499FFF712FE0AB080BD9018010082B0019000200090164800684003400F49
S3250000E620022803D1FFE7019800900BE0114800684003400F012803D1FFE70448009000E0EA
S3250000E640FFE7FFE7009802B07047C0460090D00381B0084800684003400F012803D1FFE720
S3250000E6600120009002E000200090FFE7009801B07047C0460840064086B0059004910598DA
S3250000E6808008039003988100B84840580290002001900598001F00906C2800D960E10098D0
S3250000E6A0810001A0405887465DE8000061E9000061E9000061E900005DE8000061E900001B
S3250000E6C061E9000061E900005DE8000061E9000061E9000061E900005DE8000061E90000EE
S3250000E6E061E9000061E900005DE8000061E9000061E9000061E900005DE8000061E90000CE
S3250000E70061E9000061E9000093E8000061E9000061E9000061E9000093E8000061E9000041
S3250000E72061E9000061E900005DE8000061E9000061E9000061E900005DE8000061E900008D
S3250000E74061E9000061E900005DE8000061E9000061E9000061E900005DE8000061E900006D
S3250000E76061E9000061E900005DE8000061E9000061E9000061E900005DE8000061E900004D
S3250000E78061E9000061E900005DE8000061E9000061E9000061E900005DE8000061E900002D
S3250000E7A061E9000061E900005DE8000061E9000061E9000061E9000005E9000061E9000064
S3250000E7C061E9000061E9000061E9000061E9000061E9000061E9000061E9000061E90000E3
S3250000E7E061E9000061E9000061E9000061E9000061E9000061E9000061E9000061E90000C3
S3250000E80061E9000061E9000061E9000061E9000061E9000061E900005DE8000061E90000A7
S3250000E82061E9000061E900005DE8000061E9000061E9000061E900005DE8000061E900008C
S3250000E84061E9000061E900005DE8000061E9000061E9000061E900005DE8000002980068B4
S3250000E860C00F002805D0FFE702995B2000060860FFE7049A029908685207520E70239843A6
S3250000E88080180860029908680122D2071043086069E002980068C00F002805D0FFE7029918
S3250000E8A05B2000060860FFE70498032808D1FFE702990868102210436022904308601AE0B6
S3250000E8C00498042808D1FFE702990868202210435022904308600DE00498002806D1FFE7F0
S3250000E8E00299086870229043086002E001200190FFE7FFE7FFE7029908680122D20710439A
S3250000E900086030E002980068C00F002805D0FFE702995B2000060860FFE7049803280AD1B9
S3250000E920FFE7049A029908685207520E70239843801808600DE00498002806D1FFE7029912
S3250000E940086870229043086002E001200190FFE7FFE7029908680122D2071043086002E070
S3250000E96001200190FFE7019806B070479018010080B584B0039002910192002000904048F0
S3250000E9800068C00F002805D0FFE75B2000063C490860FFE7029A3A490868D207920F0223D5
S3250000E9A0984380180860FFF753FE002807D1FFE7334908680122D2071043086045E0039AE4
S3250000E9C023490868D207520F0423984380180860019B086801221340D2431040C0180860F2
S3250000E9E0086802231843086025490868104008600198002815D1FFE700F0A6FA2048016835
S3250000EA000122114301600168D207114301600068C003C00F002803D0FFE701200090FFE7AF
S3250000EA2009E0174908680122104308600868D20710430860FFE70098002805D1FFE70420AF
S3250000EA4000F006FA0090FFE7FFE7009804B080BD184006400A480068C00F002805D0FFE7D1
S3250000EA605B20000606490860FFE70549086801225302984308600868D2071043086070473E
S3250000EA801440064085B00490039104988008029002988100BF48405801900498001F00902D
S3250000EAA0832800D973E10098810001A040588746C1EC00008FED00008FED00008FED000038
S3250000EAC0C1EC00008FED00008FED00008FED0000C1EC00008FED00008FED00008FED0000EE
S3250000EAE0C1EC00008FED00008FED00008FED0000C1EC00008FED00008FED00008FED0000CE
S3250000EB00C1EC00008FED00008FED00008FED0000C1EC00008FED00008FED00008FED0000AD
S3250000EB20C1EC00008FED00008FED00008FED0000C1EC00008FED00008FED00008FED00008D
S3250000EB40C1EC00008FED00008FED00008FED0000C1EC00008FED00008FED00008FED00006D
S3250000EB60C1EC00008FED00008FED00008FED0000C1EC00008FED00008FED00008FED00004D
S3250000EB80C1EC00008FED00008FED00008FED0000C1EC00008FED00008FED00008FED00002D
S3250000EBA0C1EC00008FED00008FED00008FED0000C1EC00008FED00008FED00008FED00000D
S3250000EBC0C1EC00008FED00008FED00008FED00008FED00008FED00008FED00008FED00001E
S3250000EBE08FED00008FED00008FED00008FED00008FED00008FED00008FED00008FED00002F
S3250000EC008FED00008FED00008FED00008FED00008FED00008FED00008FED00008FED00000E
S3250000EC20C1EC00008FED00008FED00008FED0000C1EC00008FED00008FED00008FED00008C
S3250000EC40C1EC00008FED00008FED00008FED0000C1EC00008FED00008FED00008FED00006C
S3250000EC60C1EC00008FED00008FED00008FED00008FED00008FED00008FED00008FED00007D
S3250000EC808FED00008FED00008FED00008FED00008FED00008FED00008FED00008FED00008E
S3250000ECA08FED00008FED00008FED00008FED00008FED0000F9EC00002DED00005FED000097
S3250000ECC001980068C00F002805D0FFE701995B2000060860FFE7039A019908681207120D33
S3250000ECE00F231B02984380180860019908680122D207104308604BE054480068C00F0028FD
S3250000ED0005D0FFE75B20000650490860FFE74F4908680F2212029043039A1202104308603E
S3250000ED2008680122D2071043086031E047480068C00F002805D0FFE75B2000064349086077
S3250000ED40FFE742490868F0229043039A12011043086008680122D2071043086018E03B48DA
S3250000ED600068C00F002805D0FFE75B20000637490860FFE7354908680F229043039A104342
S3250000ED80086008680122D2071043086000E0FFE705B070479018010080B582B001900020EB
S3250000EDA000900198012823D1FFE7032000F050F8002803D0FFE70120009018E02348006869
S3250000EDC0C00F002805D0FFE75B2000061F490860FFE71E4908680722120490430122130421
S3250000EDE0C01808600868D20710430860FFE72AE00198002823D1FFE7042000F029F80028E1
S3250000EE0003D0FFE70120009018E010480068C00F002805D0FFE75B2000060C490860FFE7F4
S3250000EE200A49086807221204904301225304C01808600868D20710430860FFE702E0012050
S3250000EE400090FFE7FFE7009802B080BD0C40064084B0039000200290012001900398401E13
S3250000EE600090032860D80098810001A04058874681EE0000D5EE0000ABEE0000FFEE0000C2
S3250000EE80FFE702982B4988420ED8FFE70298401C02902C4800684007C00F002803D0FFE787
S3250000EEA00020019000E0ECE741E0FFE70298214988420ED8FFE70298401C029020480068EF
S3250000EEC0C003C00F002803D0FFE70020019000E0ECE72CE0FFE70298164988420ED8FFE7D4
S3250000EEE00298401C0290154800688005C00F002803D0FFE70020019000E0ECE717E0FFE749
S3250000EF0002980C4988420ED8FFE70298401C029009480068C003C00F002803D0FFE7002092
S3250000EF20019000E0ECE702E000200190FFE7019804B070479F860100144006400080024088
S3250000EF401C40064004D0074080B584B00C480290002101910B4909680905090F491C039108
S3250000EF600399FFF763F9401C0290FFE70198411C01910299884201D2FFE7F7E704B080BD54
S3250000EF80AC0D00000840064087B0069005910492039300200290059800900498012809D117
S3250000EFA0FFE74A49086802221043086003984A490860FFE745490868022290430860FFE7C4
S3250000EFC00098042818D3FFE70698029A8118805C4A78120280188A7812048018C978090679
S3250000EFE04018019001983C4908600298001D02900098001F0090E3E7FFE7009800280CD0C0
S3250000F000FFE706980299405C334908700098401E00900298401C0290EFE72F48006807B0C1
S3250000F0207047C04681B00090009800284BD0FFE70098C2682548016801231A4099438918F8
S3250000F040016000998A680168D207520F04239943891801600068C007002809D1FFE7009867
S3250000F06082881B4908681B4B18408018086004E00098406816490860FFE7009840690028B4
S3250000F08006D1FFE711490868C0221043086007E00E49086880221043402290430860FFE720
S3250000F0A000980269094908689207920E3023984380180860086802221043086000980068CF
S3250000F0C005490860FFE701B07047C046103004400C3004400000FFFF0830044010B588B0A5
S3250000F0E0074902A801901CC91CC01CC91CC0502000F04CFE0198FFF795FF08B010BDC046A5
S3250000F100F417010080B582B07348006850498968084001904F48016801980840019001A8D5
S3250000F12000780006002806D5FFE74A490868802290430860FFE701A88078C007002805D037
S3250000F140FFE70120000464490860FFE700200090FFE70098012824D8FFE7019800998A00AE
S3250000F1603B498958084217D0FFE70098810029484058002806D0FFE70098810025484058E9
S3250000F180804708E000988100314842583149086890430860FFE7FFE7FFE70098401C009033
S3250000F1A0D7E702B080BDC04680B584B003900291494800680006C00F002803D1FFE7022035
S3250000F1C0019014E003984549086002980068002807D1FFE702984168422002F0EFFA01901A
S3250000F1E004E0422002F0F0FA0190FFE7FFE7019804B080BD82B0019000910198012806D80C
S3250000F200FFE7009801998A0002498850FFE702B07047C04634C8FF1F82B0019000910098C8
S3250000F220002809D1FFE70198810009484258094908681043086008E0019881000448425876
S3250000F2400449086890430860FFE702B07047C046841801000400024080B586B005900491E3
S3250000F26003921C4801901C4800680006C00F002803D1FFE70220029029E005981749086059
S3250000F280694600200870FFE7684600780F280CD8FFE7049869460A78805C01998854FFE70F
S3250000F2A00098401C69460870EEE703980068002807D1FFE703984168242002F07FFA0290EA
S3250000F2C004E0242002F080FA0290FFE7FFE7029806B080BD200002400000024018000240AB
S3250000F2E080B582B00748FF21884307490860BFF34F8F0020019000F049FD02F067F901984D
S3250000F30002B080BD00E0000008ED00E080B54348012101700020FFF77FFF80BD0C48006863
S3250000F320002802D1FFE762B6FFE7704782B0EFF3108000900099064801600068002805D14F
S3250000F340FFE7EFF3108072B60190FFE702B0704704C8FF1F80B582B0009000982549FFF76A
S3250000F36023FF002808D1FFE7FFF7D8FF0C490120087001A908700FE009480078C0070028FA
S3250000F38006D0FFE7FFF7D2FF054900200870FFE701A900200870FFE701A8007802B080BDE0
S3250000F3A000C8FF1F80B584B00290019102980199104AFFF751FF002808D1FFE7FFF7AEFF76
S3250000F3C00D490120087003A908700FE00A480078C007002806D0FFE7FFF7A8FF06490020A4
S3250000F3E00870FFE703A900200870FFE703A8007804B080BD0CC8FF1F01C8FF1F80B582B02B
S3250000F400FFF76EFF01900549002008700449FFF7F1FE0F2002F072F902B080BD3CC8FF1F3D
S3250000F4200DF3000080B586B06020009004210491FFF722F9009800F0A9FC049964200190A1
S3250000F440FFF71AF9019800F0A1FC049968200290FFF712F9029800F099FC04996C200390E4
S3250000F460FFF70AF9039800F091FC049970200590FFF702F9059800F089FC7C2000F086FCA2
S3250000F48006B080BD80B51B480068C00700280CD0FFE77848006890214058002804D0FFE76F
S3250000F4A0002000F057F8FFE7FFE713480068C00700280CD0FFE76F484068902140580028D7
S3250000F4C004D0FFE7012000F045F8FFE7FFE70B480068C00700280CD0FFE76648806890219F
S3250000F4E04058002804D0FFE7022000F033F8FFE7FFE780BD60500640645006406850064058
S3250000F50080B512480068C00700280CD0FFE75948C06890214058002804D0FFE7032000F036
S3250000F52019F8FFE7FFE70A480068C00700280CD0FFE75048006990214058002804D0FFE751
S3250000F540042000F007F8FFE7FFE780BD6C5006407050064080B586B00590059881004548D6
S3250000F5604058029005988100434840580190029890214058049000200390FFE703981F2897
S3250000F5803BD8FFE704980399C840C007002826D0FFE71B480068002806D0FFE718480268E8
S3250000F5A005980399904719E001980399890041185B200006086102980399890041180869B2
S3250000F5C00F22120490430861029803998900411808690122D20310430861FFE7FFE70498FD
S3250000F5E0039A012191400840029990228B588850FFE70398401C0390C0E706B080BDC04615
S3250000F60040C8FF1F85B0049003910292049881001848405801900498810017484058009083
S3250000F620019803998900401800690004C00F002808D0FFE700980399890041185B200006F5
S3250000F6400861FFE7029A019803998900411808695207520D07231B029843801808610198BD
S3250000F66003998900411808690122D2031043086105B07047041901001819010083B00246AA
S3250000F68002A802700191012100910078202803D3FFE70120009009E002A8007880001749EB
S3250000F6A040580199086000200090FFE7009803B07047C04683B0024602A8027001910121C1
S3250000F6C000910078202803D3FFE70120009011E0019800280AD0FFE70198006802A90978C7
S3250000F6E08900064A88500020009002E001200090FFE7FFE7009803B07047C04600400340B9
S3250000F70080B5294800684003C00F002822D0FFE725480068C00F002805D0FFE75B200006BB
S3250000F72021490860FFE72049086801229304184308600868D207104308601C4800680028BD
S3250000F74004D0FFE719480068804702E0FFF782F9FFE7FFE7164800684003C00F002822D048
S3250000F760FFE713480068C00F002805D0FFE75B2000060F490860FFE70D4908680122930481
S3250000F780184308600868D2071043086007484068002804D0FFE705484068804702E0FEF730
S3250000F7A07DFDFFE7FFE780BD1440064044C8FF1F1C40064080B582B04949086801900198C7
S3250000F7C0484A12681040019001980860019846490968084210D0FFE744480068002804D09C
S3250000F7E0FFE742480068804705E041490868042290430860FFE7FFE701983B494968084240
S3250000F80010D0FFE739484068002804D0FFE737484068804705E036490868202290430860D2
S3250000F820FFE7FFE7019830498968084210D0FFE72E488068002804D0FFE72C488068804780
S3250000F84005E02B490868402290430860FFE7FFE701982549C968084211D0FFE72348C06894
S3250000F860002804D0FFE72148C068804706E0204908680122520290430860FFE7FFE7019872
S3250000F88019490969084211D0FFE718480069002804D0FFE715480069804706E01449086892
S3250000F8A00122920290430860FFE7FFE701980E494969084211D0FFE70C484069002804D0D8
S3250000F8C0FFE70A484069804706E0094908680122D20390430860FFE7FFE702B080BDC046DE
S3250000F8E008E007404CC8FF1F6818010050C8FF1F1CE0074081B0009000988100714A885832
S3250000F90001239B039843885001B0704780B500F093F880BD81B0009000988100694A8858AA
S3250000F92001239B031843885001B07047B0B582B00190009100980068012819D1FFE700981A
S3250000F9400369019881005F4A88589B079B0D03242402A043C018885000984369019881000A
S3250000F9608858DB071B0E8024A043C0188850FFE70098036801988100524A8858DB075B0D96
S3250000F9800124A502A843C01888500098406801998900184BCD58C85000988368019881005A
S3250000F9A08858DB071B0DE402A043C01888500098C36801988100885803242340A043C018DC
S3250000F9C088500098C369019881008858DB075B0E4024A043C01888500098836901988100AB
S3250000F9E088581B079B0E3C24A043C018885002B0B0BDC0461400044083B0029001910092FD
S3250000FA00009802998A0030498918019A9200885003B0704710B582B001900091009B01984D
S3250000FA208100284A8858DB079B0C01246403A043C018885002B010BD10B582B0002001901E
S3250000FA40FFE7019803283AD8FFE7019880001D4A80580004C00F00900099019880008058B9
S3250000FA60400B0840012420400090009B019881008858DB071B0CE403A043C0188850009828
S3250000FA80002817D0FFE7019881000F484058002806D0FFE7019881000B484058804708E0CA
S3250000FAA001988100074A885801235B0398438850FFE7FFE7FFE70198401C0190C1E702B02E
S3250000FAC010BDC0462400044090CAFF1F83B002900298AD494018019002980090802800D984
S3250000FAE04FE10098810001A040588746F1FC000083FD000083FD000083FD0000F1FC000057
S3250000FB0083FD000083FD000083FD0000F1FC000083FD000083FD000083FD0000F1FC000005
S3250000FB2083FD000083FD000083FD0000F1FC000083FD000083FD000083FD0000F1FC0000E5
S3250000FB4083FD000083FD000083FD0000F1FC000083FD000083FD000083FD0000F1FC0000C5
S3250000FB6083FD000083FD000083FD0000F1FC000083FD000083FD000083FD0000F1FC0000A5
S3250000FB8083FD000083FD000083FD0000F1FC000083FD000083FD000083FD0000F1FC000085
S3250000FBA083FD000083FD000083FD0000F1FC000083FD000083FD000083FD0000F1FC000065
S3250000FBC083FD000083FD000083FD0000F1FC000083FD000083FD000083FD0000F1FC000045
S3250000FBE083FD000083FD000083FD0000F1FC000083FD000083FD000083FD0000F1FC000025
S3250000FC0083FD000083FD000083FD0000F1FC000083FD000083FD000083FD0000F1FC000004
S3250000FC2083FD000083FD000083FD0000F1FC000083FD000083FD000083FD000057FD00007D
S3250000FC4083FD000083FD000083FD0000F1FC000083FD000083FD000083FD0000F1FC0000C4
S3250000FC6083FD000083FD000083FD000029FD000083FD000083FD000083FD000029FD000032
S3250000FC8083FD000083FD000083FD000029FD000083FD000083FD000083FD000029FD000012
S3250000FCA083FD000083FD000083FD000029FD000083FD000083FD000083FD0000F1FC00002B
S3250000FCC083FD000083FD000083FD0000F1FC000083FD000083FD000083FD0000F1FC000044
S3250000FCE083FD000083FD000083FD0000F1FC000001980068C00F002805D0FFE701995B20C9
S3250000FD0000060860FFE701990868032290430860019908680122530598430860019908684D
S3250000FD20D207104308602DE001980068C00F002805D0FFE701995B2000060860FFE7019966
S3250000FD400868032290430860019908680122D2071043086016E0B3480068C00F002805D0E7
S3250000FD60FFE75B200006AF490860FFE7AD49086803229043086008680122D20710430860E3
S3250000FD8000E0FFE703B070470050064083B002900298A3494018019002980090802800D9B8
S3250000FDA03AE10098810001A040588746B1FF0000190001001900010019000100B1FF000055
S3250000FDC0190001001900010019000100B1FF0000190001001900010019000100B1FF000021
S3250000FDE0190001001900010019000100B1FF0000190001001900010019000100B1FF000001
S3250000FE00190001001900010019000100B1FF0000190001001900010019000100B1FF0000E0
S3250000FE20190001001900010019000100B1FF0000190001001900010019000100B1FF0000C0
S3250000FE40190001001900010019000100B1FF0000190001001900010019000100B1FF0000A0
S3250000FE60190001001900010019000100B1FF0000190001001900010019000100B1FF000080
S3250000FE80190001001900010019000100B1FF0000190001001900010019000100B1FF000060
S3250000FEA0190001001900010019000100B1FF0000190001001900010019000100B1FF000040
S3250000FEC0190001001900010019000100B1FF0000190001001900010019000100B1FF000020
S3250000FEE0190001001900010019000100B1FF0000190001001900010019000100EBFF0000C6
S3250000FF00190001001900010019000100B1FF0000190001001900010019000100B1FF0000DF
S3250000FF20190001001900010019000100B1FF0000190001001900010019000100B1FF0000BF
S3250000FF40190001001900010019000100B1FF0000190001001900010019000100B1FF00009F
S3250000FF60190001001900010019000100B1FF0000190001001900010019000100B1FF00007F
S3250000FF80190001001900010019000100B1FF0000190001001900010019000100B1FF00005F
S3250000FFA0190001001900010019000100B1FF000001980068C00F002805D0FFE701995B2075
S3250000FFC000060860FFE7019908680122104302239843086001990868530518430860019920
S3250000FFE00868D2071043086017E00E480068C00F002805D0FFE75B2000060A490860FFE76E
S3250001000008490868012210430223984308600868D2071043086000E0FFE703B07047C04600
S32500010020005006405450064083B00290029896494018019002980090802800D921E10098CD
S32500010040810001A0405887464D0201008302010083020100830201004D020100830201005A
S3250001006083020100830201004D0201008302010083020100830201004D02010083020100B5
S3250001008083020100830201004D0201008302010083020100830201004D0201008302010095
S325000100A083020100830201004D0201008302010083020100830201004D0201008302010075
S325000100C083020100830201004D0201008302010083020100830201004D0201008302010055
S325000100E083020100830201004D0201008302010083020100830201004D0201008302010035
S3250001010083020100830201004D0201008302010083020100830201004D0201008302010014
S3250001012083020100830201004D0201008302010083020100830201004D02010083020100F4
S3250001014083020100830201004D0201008302010083020100830201004D02010083020100D4
S3250001016083020100830201004D0201008302010083020100830201004D02010083020100B4
S3250001018083020100830201004D02010083020100830201008302010083020100830201005E
S325000101A083020100830201004D0201008302010083020100830201004D0201008302010074
S325000101C083020100830201004D0201008302010083020100830201004D0201008302010054
S325000101E083020100830201004D0201008302010083020100830201004D0201008302010034
S3250001020083020100830201004D0201008302010083020100830201004D0201008302010013
S3250001022083020100830201004D0201008302010083020100830201004D02010083020100F3
S3250001024083020100830201004D02010001980068C00F002805D0FFE701995B200006086005
S32500010260FFE7019908680122530598430860019908681843086001990868D207104308605E
S3250001028000E0FFE703B070470050064080B582B000200090FFF77AFD01F098F9009A0121CF
S325000102A001910846FEF764FB0198FEF775FD00998520FEF7E7FB01998620FEF7E3FB872034
S325000102C00721FEF7DFFBFFF7ADF802B080BD80B5002000F00BF880BD80B5012000F006F8CD
S325000102E080BD80B5022000F001F880BD70B594B0139000201290119010900F9013998A0059
S325000103007A4989580E9113998A00794989580D91784A01A978CA78C178CA78C178CA78C13F
S325000103200D9949690C9A114011910D99C96E0B9A114010911290FFE71298072845D8FFE7ED
S3250001034011981299C840C007002839D0FFE70E981299890040188069C006C00F00282FD085
S32500010360FFE70D9812998900401880690F900F98202188430F900F980D99129A9200891859
S32500010380886113982C2141435B48401812998900405800280AD0FFE713982C214143564828
S325000103A04018129989004058804708E00E981299890041188869102290438861FFE7FFE785
S325000103C0FFE71298401C1290B6E71198099908422BD0FFE70E980069C005C00F002824D0B6
S325000103E0FFE70D9840690F900F980121090288430F900F980D99486113982C2141433E48ED
S325000104004018006A002808D0FFE713982C21414339484018006A804706E00E990869012286
S32500010420120290430861FFE7FFE711980A9908422BD0FFE70E9800698005C00F002824D0A3
S32500010440FFE70D9840690F900F980121490288430F900F980D99486113982C214143264864
S325000104604018406A002808D0FFE713982C21414321484018406A804706E00E9908690122BE
S32500010480520290430861FFE7FFE710980B99084229D0FFE70E98806E4006C00F002822D0C1
S325000104A0FFE70D98C06E0F900F98102188430F900F980D99C86613982C2141430E484018F6
S325000104C0806A002808D0FFE713982C2141430A484018806A804705E00E99886E40229043B7
S325000104E08866FFE7FFE714B070BDC0464C190100581901000C180100A0CAFF1F80B582B058
S32500010500082000900321FEF7B7F80098FFF73EFC0A4900200190FFF709FA0199084A084655
S32500010520FFF76AFA01980121FFF774FA0198FFF7F1F91C2001F002F902B080BD2C19010065
S325000105404505010080B500F07DFC80BD80B5002000F030F980BD80B5012000F02BF980BD1C
S3250001056080B5022000F026F980BD80B5032000F021F980BD84B0039002910398810027484D
S3250001058040580090029908698007000ECA689207920E80184A68D207520F80188A68D20739
S325000105A0920F801809680122114040180190019800998860019803998A0005498850039893
S325000105C08200885806239843885004B07047C04628CBFF1F82B00190019881006D4840582A
S325000105E000900098C06F0121084002B07047C04684B00390029103988100084840580090D6
S325000106000098406902998A00054989580840411E88410190019804B07047C046DC1901003D
S3250001062088190100B0B58CB00B900A91302007902C20069028200590242004900B98810098
S3250001064004A84058039003980A994969FDF73EFE02900B988100F448405801900199C868B7
S32500010660802200921043C86002980A9909680901FDF7DCFD099009A80478019A1168FF2343
S32500010680DB4319400919116042780199486818408018486002980A9909680901FDF7C6FD3E
S325000106A008910A9801680898FDF7C0FD009A0890089C0199C023C8580F252C40A843001927
S325000106C0C8500199C8689043C8600A988068002806D1FFE70199C86808229043C8601BE0DD
S325000106E00A98806801280BD1FFE70199C86808221043C8600199C86810229043C8600AE02E
S325000107000199C86808221043C8600199C86810221043C860FFE7FFE70A984068042807D1D2
S32500010720FFE70199CC22885801231843885009E00A9842680199C86803231A40984380181B
S32500010740C860FFE70A98C2680199C868D207520F042398438018C8600A98026901990869DA
S32500010760D207920E20239843801808610A980069012806D1FFE701990869022210430861FE
S3250001078005E001990869022290430861FFE70CB0B0BDC046CC19010083B00290019100921E
S325000107A0009802994A01A2498918019A9200885003B0704780B586B0059005988100B5489E
S325000107C04058029005988100BA48405801900198406905998A009549885002984068C00578
S325000107E0C00F002821D0FFE7059881008F48401840784006002817D5FFE7059841018C482C
S3250001080040184069002807D0FFE705984101884840184069804706E002994868012212020C
S3250001082090434860FFE7FFE7FFE7029840688005C00F002821D0FFE7059881007B484018B6
S3250001084040780006002817D5FFE705984101784840188069002807D0FFE705984101744879
S3250001086040188069804706E0029948680122520290434860FFE7FFE7FFE70298406840070B
S32500010880C00F00281FD0FFE7059881006748405C9E21084216D0FFE7059841016448401864
S325000108A08068002807D0FFE705984101604840188068804705E00299486804229043486005
S325000108C0FFE7FFE7FFE7029840684005C00F002821D0FFE7059881005448401840788007B9
S325000108E0002817D5FFE70598410151484018C069002807D0FFE7059841014D484018C06924
S32500010900804706E0029948680122920290434860FFE7FFE7FFE7029880680F210840049066
S325000109200498801E00900A2876D80098810001A04058874661090100190A01008D09010021
S32500010940190A0100190A0100B5090100190A0100190A0100190A0100190A0100E709010008
S3250001096005984101324840184068002807D0FFE7059841012E4840184068804705E0029996
S325000109804868022290434860FFE746E00598410127484058002806D0FFE7059841012448E0
S325000109A04058804705E002994868012290434860FFE732E00198C06F0390059841011C486D
S325000109C04018C068002807D0FFE70598410118484018C068804705E00299486801229043FF
S325000109E04860FFE719E005984101114840180069002807D0FFE7059841010D484018006996
S32500010A00804705E002994868012290434860FFE701980068039000E0FFE70598820003498F
S32500010A200020885006B080BDCC190100B8CBFF1F38CBFF1F84B00390029101920398810013
S32500010A401C48405800900198002809D1FFE70298810009484258009948681043486008E050
S32500010A6002988100044842580099486890434860FFE704B07047C0466419010082B0019012
S32500010A800198810003484058009000980068C0B202B07047CC19010083B0029001A8017022
S32500010AA002998A0003498958009100780099086003B07047DC19010080B584B003900291E4
S32500010AC00120019000200090FFE70098029988420DD2FFE70398FFF77DFD002803D1FFE718
S32500010AE00020019003E00098401C0090EDE7019804B080BDB0B592B024490CA804901CC938
S32500010B001CC01CC91CC02C2003900421FDF7B4FD03980021FDF7B6FF0398FFF737F90499C5
S32500010B2002200590FFF77EFD0320052206921146FEF768FD0598069A0121FEF763FDFFE759
S32500010B4002201349FFF7B8FF012804D1FFE70220FFF794FFF4E70F4A07A9084618CA18C0E8
S32500010B6038CA38C002200190FFF704FD01980A4A00210291FFF710FE0198029A1146FFF7A3
S32500010B8059FF0C2000F0CAFD12B0B0BD50180100581B00003C1801009D0B010080B582B0A3
S32500010BA00220FFF76BFF01A9087051480068401E0090062800D998E00098810001A04058CA
S32500010BC08746C046E10B0100EB0C0100010C0100210C0100EB0C01009F0C0100C50C0100A4
S32500010BE0019943480279531C0371821851710079022804DBFFE73E4900200871FFE775E04C
S32500010C0001993B480279531C0371821851710079022804DBFFE7364900200871FFE765E04B
S32500010C2033484321C900405CC007002836D1FFE701992F48C28A531CC38282181176C08A11
S32500010C4001214902884208DBFFE729490020C8824320C20001208854FFE72548C08A0428C6
S32500010C601BD1FFE72248007E662815D1FFE72048407E772810D1FFE71D48807E88280BD1DE
S32500010C80FFE71B48C07E992806D1FFE718490020C88205200860FFE7FFE7FFE726E001999E
S32500010CA013480279531C0371821851710079042807DBFFE71049012008700D4900200871CA
S32500010CC0FFE713E001990A480279531C0371821851710079042807DBFFE706490120087039
S32500010CE0034900200871FFE700E0FFE702B080BD74C8FF1F30C8FF1F2EC8FF1F80B584B080
S32500010D000390029100200190694608700190FFE701980299884218D2FFE703980199405CB8
S32500010D2069460870FFE702200621FFF761FC002801D1FFE7F7E7684601780220FFF7ACFE5C
S32500010D40FFE70198401C0190E2E704B080BD000002480078012108407047C0462FC8FF1F68
S32500010D6083B00090029101920298002807D1FFE701980C4908602720C002486006E001987D
S32500010D8008490860052040034860FFE70099029A0448826082688A6042684A600068086042
S32500010DA003B0704768C8FF1F80B588B0EFF3108072B6079000200590069006A9FEF77AFC71
S32500010DC00220082101910122FFF734FE0C20009000F07EFC009800F069FC0598FEF78AFDB8
S32500010DE005990846FEF716FE0198FFF71DF90198FEF76CFE1C20029000F06AFC029800F0AC
S32500010E0055FC54200390FFF70FF90398FEF75EFE0F2000F05DFC78200490FFF705F9049855
S32500010E20FEF754FE059804490860044908600449086008B080BDC04610E000E014E000E009
S32500010E4018E000E080B5A8B000200D9027902690259024902390229021902090124800680B
S32500010E601F90124800681E90114800680E90092800D94EE30E98810001A040588746C0467F
S32500010E80B50E0100DD0F0100AF11010011120100571201000F1301004D130100A51301000E
S32500010EA02B140100F314010000E0010100C0010174C8FF1F1F98FC49884209D0FFE71F98A9
S32500010EC0FA49884204D0FFE7F94901200870FFE71E98F549884209D0FFE71E98F34988424A
S32500010EE004D0FFE7F34901200870FFE7F1480078C00700280ED1FFE7ED480078C007002875
S32500010F0008D1FFE7EC490020FEF7B8FBEB490120086062E0E6480078C00700280AD0FFE7BA
S32500010F2024A9A520087048708870C870E44900200870FFE7DF480078C00700280AD0FFE7BF
S32500010F4020A9A520087048708870C870DD4900200870FFE7DA480078C007002811D1FFE7A7
S32500010F60D948FEF7F7F900280BD0FFE7D64824A9FEF718FA002804D0FFE7D14901200870F4
S32500010F80FFE7D0480078C007002811D1FFE7CF48FEF7E0F900280BD0FFE7CC4820A9FEF77D
S32500010FA001FA002804D0FFE7C64901200870FFE7C3480078C00700280ED0FFE7C148007808
S32500010FC0C007002808D0FFE7BB490020FEF756FBBA4901200860FFE7FFE79BE2B6480068B8
S32500010FE0BB4988426CD1FFE7BA480068002839D1FFE7B8490C910020FEF75CFB0C99086858
S32500011000401C08601E98A849884210D1FFE7AB4AB521917310460E30D1730221FFF76EFEA1
S325000110205720C2021BA80021FFF79AFE19E01E989E49884210D1FFE7A04AA52191731046CB
S325000110400E30D1730221FFF759FE0320C20318A80021FFF785FE03E0984909200860FFE71A
S32500011060FFE700E0FFE795484079122815D1FFE792488079342810D1FFE790490A91022095
S32500011080086000200B9008710873C872887248720872C8718871487111E08F480188491C29
S325000110A0018000887D21C900884206DBFFE78A490020088000F054FB00E0FFE7FFE775E06D
S325000110C07D480068854988426BD1FFE784480068002838D1FFE7824909910020FEF7EAFA79
S325000110E009990868401C08601F986F49884210D1FFE7724AB521917310460E30D173022182
S32500011100FFF7FCFD0720420315A80121FFF728FE18E01F98654988420FD1FFE7674AA5210E
S32500011120917310460E30D1730221FFF7E7FD01218A0312A8FFF714FE03E0F84909200860A9
S32500011140FFE7FFE700E0FFE7F4484079122815D1FFE7F2488079342810D1FFE7EF490791D5
S32500011160022008600020089008710873C872887248720872C8718871487111E0F24801882B
S32500011180491C018000887D21C900884206DBFFE7ED490020088000F0E3FA00E0FFE7FFE78B
S325000111A003E0E14901200870FFE7FFE7B2E1E5480078DC494968490B884211D2FFE7D948A0
S325000111C00068E049097849034018FEF7C3F8002805D0FFE7DB490878401C0870FFE7FFE77B
S325000111E0D8480078CF494968490B88420FD3FFE7CA4A0692A520907310460E30B521D1737F
S325000112000221FFF77BFD069903200860FFE781E1C2484079C5281DD1FFE7C0488079D52842
S3250001122018D1FFE7BD4A0492042010600020059010711073D072907250721072D071907124
S3250001124050712221917310460E30D1730221FFF755FDFFE75EE1B1484321C900405CC0078E
S32500011260002853D0FFE711A900200880FFE711A80088B249884235DCFFE7AA48006811A9DD
S325000112800A888018AE4909684018A44989181831FEF788F8002805D0FFE71198103011A98B
S325000112A00880FFE7E3E7C046A5A5A5A5B5B5B5B515C8FF1F14C8FF1F24CBFF1F74C8FF1F25
S325000112C009C8FF1F08C8FF1F00E0010100C001010202020224C8FF1F16C8FF1F0101010174
S325000112E028C8FF1F9649086801225202801808608A4A4320C10000205054222191731046BA
S325000113000E30D1730221FFF7F9FCFFE702E18A48007800280AD1FFE7804A9921917310465C
S325000113200E30D1730221FFF7E9FC0AE0824800780A2804DBFFE779490620086000E0FFE7ED
S32500011340FFE77D490878401C0870E3E079480078C007002824D0FFE7704A039250790006A3
S32500011360917909044018D17909024018117A40186F490860002002901073D072907250720C
S325000113801072D07190715071AA21917310460E30D1730221FFF7B2FC03990720086000E048
S325000113A0FFE7B7E0002010900F9060480078C007002838D0FFE75B4800685D490968002209
S325000113C0D3430122FDF7E0FD0F905449487900068A7912048018CA7912028018097A40187E
S325000113E010900F98109988420ED1FFE74B4A0192BB21917310460E30D1730221FFF77EFCF4
S325000114000199082008600DE0444A0092CC21917310460E30D1730221FFF770FC009909207E
S325000114200860FFE700E0FFE774E03E48806800282FD1FFE71E986349884207D1FFE720A90E
S32500011440B520087048708870C87010E01E985E49884207D1FFE720A9A520087048708870C5
S32500011460C87003E02D4909200860FFE7FFE75448FDF770FF00280BD0FFE7514820A9FDF739
S3250001148091FF002804D0FFE7274901200870FFE72EE01F984B49884207D1FFE724A9B52061
S325000114A0087048708870C87010E01F984649884207D1FFE724A9A520087048708870C87015
S325000114C003E0164909200860FFE7FFE71248FDF741FF00280BD0FFE70F4824A9FDF762FF76
S325000114E0002804D0FFE7104901200870FFE7FFE710E00B480188491C01800088322806DBD0
S32500011500FFE707490020088000F02AF900E0FFE700E0FFE728B080BD00E0010174C8FF1FF6
S325000115201AC8FF1F68C8FF1F2FC8FF1F30C8FF1F20C8FF1F2EC8FF1F2CC8FF1FFF010000FF
S325000115401CC8FF1F2DC8FF1F18C8FF1F80B582B078200190FEF768FD0198FEF717FC02B034
S3250001156080BD000080B584B0FFF71EFC0320C003039013480068029002981249884204D14C
S32500011580FFE70320C00303900DE002980E49884204D1FFE75720C002039003E00320C003ED
S325000115A00390FFE7FFE703984068019001980090BFF34F8FBFF36F8F00988047FFE7FEE75E
S325000115C000C00101A5A5A5A5B5B5B5B580B582B03548019000F026F80199886801229043D7
S325000115E0886000F043F802B080BDC04680B582B02D48019009480068002804D0FFE7074885
S3250001160000688047FFE700F00DF805480268019988681043886002B080BDC046C8CBFF1F97
S32500011620EC19010083B0EFF310800190019800900098002805D1FFE7EFF3108072B6029096
S32500011640FFE707B406480749074A0160026007BC0098002802D1FFE762B6FFE703B070478C
S3250001166014200540C4A1D9B00F3B1E1A83B00E480290002001900090FFE702988068C001F5
S32500011680C00F01280CD0FFE70198000D002803D0FFE70120009003E00198401C0190ECE715
S325000116A0009803B07047C0460020054081B000900098002808D4FFE700991F200140012039
S325000116C0884002490860FFE701B0704780E200E081B00090009800280CD4FFE700991F20D9
S325000116E001400120884004490860BFF34F8FBFF36F8FFFE701B0704780E100E081B0009074
S325000117000098002808D4FFE700991F2001400120884012490860FFE701B0704781B000906C
S325000117200098002808D4FFE700991F200140012088400A490860FFE701B0704781B0009054
S325000117400098002808D4FFE700991F2001400120884002490860FFE701B0704700E100E03C
S32500011760BFF34F8F034904480860BFF34F8FFFE700BFFDE70CED00E00400FA0580B582B076
S3250001178000200090EFF3108072B60190FEF77EFD62B6FDF7A3FCFFF7D9FEFFF7ABF9FEF7F0
S325000117A0ADFEFDF72BFEFFE7FFF7D2FA002803D0FFE7FFF7D7FEFFE7F6E7000003B4014843
S325000117C0019001BD01C0FF1F03B40148019001BD89C0FF1F02E008C8121F08C1002AFAD17D
S325000117E070477047002001E001C1121F002AFBD17047000000000000B71DC1040100000039
S3250001180001000000020000000100000001000000020000000400000008000000100000009E
S32500011820200000004000000080000000000100000002000010000000FF03000001000000AB
S325000118400100000001000000030000000000000000C20100030000000000000000000000B6
S3250001186000000000005A6202040000002000000040000000000200000004000000800000B9
S32500011880648600008000000000000100800003000050064004500640085006400C500640E3
S325000118A01050064014500640185006401C5006402050064024500640285006402C50064081
S325000118C03050064034500640385006403C5006404050064044500640485006404C50064061
S325000118E05050064054500640585006405C5006406050064064500640685006406C50064041
S32500011900705006400090044000A0044000B0044000C0044000D004400090044000A004403E
S3250001192000B0044000C0044000D004400000000000C40900000000000000000000000000C7
S32500011940000000000000000000000000008003400090034000A00340008003400090034071
S3250001196000A0034001000000820000000400000000000000010000000001000000020000F2
S32500011980000400008F07000001000000020000000400000008000000100000002000000067
S325000119A040000000800000009E0000000001000000020000000400000008000000100000A3
S325000119C000200000004000000080000000A0064000B0064000C0064000D0064000A0064042
S325000119E000B0064000C0064000D006400000000400000004241A010000C0FF1F9801000010
S32500011A00D4170100BC1B010000C8FF1F0C000000D4170100C81B01000CC8FF1FC003000084
S32500011A20E417010080B586B005900491002003901D4802900190029800680006C00F0028D4
S32500011A4003D1FFE7022003902BE005A8027802990869FF2398438018086102998868012226
S32500011A601206904388600199742008600199802008600598402805D1FFE7049800F046F8C9
S32500011A80039004E0049800F06DF80390FFE7019800682521084203D0FFE701200390FFE77A
S32500011AA0FFE7039806B080BD0000024084B00390154801900090019800680006C00F002826
S32500011AC003D1FFE7022002901AE003A8027801990869FF23984380180861019988680122BC
S32500011AE0120690438860009974200860009880220260019948681043486000200290FFE7FE
S32500011B00029804B07047C0460000024080B584B00390012002900020019010480090FFE743
S32500011B2001980F49884216D8FFE7009800680006C00F002803D0FFE7002002900BE0019823
S32500011B40401C01900398002803D0FFE703988047FFE7FFE7E4E7029804B080BD000002404F
S32500011B607F96980080B584B00390012002900020019010480090FFE701980F49884216D8DA
S32500011B80FFE7009800680006C00F002803D0FFE7002002900BE00198401C019003980028BC
S32500011BA003D0FFE703988047FFE7FFE7E4E7029804B080BD000002409F8601000101000077
S32500011BC03412341201010000FFFFFFFFFFFFFFFFFFFFFFFFFFFFFFFFFFFFFFFFFFFFFFFF88
S30900011BE0359F7EB6F2
S70500000000FA
